{
  "_format": "hh-sol-artifact-1",
  "contractName": "AnimeStudioERC721",
  "sourceName": "contracts/AnimeStudioERC721.sol",
  "abi": [
    {
      "inputs": [],
      "stateMutability": "nonpayable",
      "type": "constructor"
    },
    {
      "anonymous": false,
      "inputs": [
        {
          "indexed": true,
          "internalType": "address",
          "name": "owner",
          "type": "address"
        },
        {
          "indexed": true,
          "internalType": "address",
          "name": "approved",
          "type": "address"
        },
        {
          "indexed": true,
          "internalType": "uint256",
          "name": "tokenId",
          "type": "uint256"
        }
      ],
      "name": "Approval",
      "type": "event"
    },
    {
      "anonymous": false,
      "inputs": [
        {
          "indexed": true,
          "internalType": "address",
          "name": "owner",
          "type": "address"
        },
        {
          "indexed": true,
          "internalType": "address",
          "name": "operator",
          "type": "address"
        },
        {
          "indexed": false,
          "internalType": "bool",
          "name": "approved",
          "type": "bool"
        }
      ],
      "name": "ApprovalForAll",
      "type": "event"
    },
    {
      "anonymous": false,
      "inputs": [
        {
          "indexed": true,
          "internalType": "bytes32",
          "name": "role",
          "type": "bytes32"
        },
        {
          "indexed": true,
          "internalType": "bytes32",
          "name": "previousAdminRole",
          "type": "bytes32"
        },
        {
          "indexed": true,
          "internalType": "bytes32",
          "name": "newAdminRole",
          "type": "bytes32"
        }
      ],
      "name": "RoleAdminChanged",
      "type": "event"
    },
    {
      "anonymous": false,
      "inputs": [
        {
          "indexed": true,
          "internalType": "bytes32",
          "name": "role",
          "type": "bytes32"
        },
        {
          "indexed": true,
          "internalType": "address",
          "name": "account",
          "type": "address"
        },
        {
          "indexed": true,
          "internalType": "address",
          "name": "sender",
          "type": "address"
        }
      ],
      "name": "RoleGranted",
      "type": "event"
    },
    {
      "anonymous": false,
      "inputs": [
        {
          "indexed": true,
          "internalType": "bytes32",
          "name": "role",
          "type": "bytes32"
        },
        {
          "indexed": true,
          "internalType": "address",
          "name": "account",
          "type": "address"
        },
        {
          "indexed": true,
          "internalType": "address",
          "name": "sender",
          "type": "address"
        }
      ],
      "name": "RoleRevoked",
      "type": "event"
    },
    {
      "anonymous": false,
      "inputs": [
        {
          "indexed": true,
          "internalType": "address",
          "name": "from",
          "type": "address"
        },
        {
          "indexed": true,
          "internalType": "address",
          "name": "to",
          "type": "address"
        },
        {
          "indexed": true,
          "internalType": "uint256",
          "name": "tokenId",
          "type": "uint256"
        }
      ],
      "name": "Transfer",
      "type": "event"
    },
    {
      "inputs": [],
      "name": "ADMIN_ROLE",
      "outputs": [
        {
          "internalType": "bytes32",
          "name": "",
          "type": "bytes32"
        }
      ],
      "stateMutability": "view",
      "type": "function"
    },
    {
      "inputs": [],
      "name": "DEFAULT_ADMIN_ROLE",
      "outputs": [
        {
          "internalType": "bytes32",
          "name": "",
          "type": "bytes32"
        }
      ],
      "stateMutability": "view",
      "type": "function"
    },
    {
      "inputs": [],
      "name": "OWNER_ROLE",
      "outputs": [
        {
          "internalType": "bytes32",
          "name": "",
          "type": "bytes32"
        }
      ],
      "stateMutability": "view",
      "type": "function"
    },
    {
      "inputs": [
        {
          "internalType": "address",
          "name": "to",
          "type": "address"
        },
        {
          "internalType": "uint256",
          "name": "tokenId",
          "type": "uint256"
        }
      ],
      "name": "approve",
      "outputs": [],
      "stateMutability": "nonpayable",
      "type": "function"
    },
    {
      "inputs": [
        {
          "internalType": "address",
          "name": "owner",
          "type": "address"
        }
      ],
      "name": "balanceOf",
      "outputs": [
        {
          "internalType": "uint256",
          "name": "",
          "type": "uint256"
        }
      ],
      "stateMutability": "view",
      "type": "function"
    },
    {
      "inputs": [
        {
          "internalType": "uint256",
          "name": "_tokenId",
          "type": "uint256"
        }
      ],
      "name": "exists",
      "outputs": [
        {
          "internalType": "bool",
          "name": "",
          "type": "bool"
        }
      ],
      "stateMutability": "view",
      "type": "function"
    },
    {
      "inputs": [
        {
          "internalType": "uint256",
          "name": "tokenId",
          "type": "uint256"
        }
      ],
      "name": "getApproved",
      "outputs": [
        {
          "internalType": "address",
          "name": "",
          "type": "address"
        }
      ],
      "stateMutability": "view",
      "type": "function"
    },
    {
      "inputs": [
        {
          "internalType": "bytes32",
          "name": "role",
          "type": "bytes32"
        }
      ],
      "name": "getRoleAdmin",
      "outputs": [
        {
          "internalType": "bytes32",
          "name": "",
          "type": "bytes32"
        }
      ],
      "stateMutability": "view",
      "type": "function"
    },
    {
      "inputs": [
        {
          "internalType": "bytes32",
          "name": "role",
          "type": "bytes32"
        },
        {
          "internalType": "address",
          "name": "account",
          "type": "address"
        }
      ],
      "name": "grantRole",
      "outputs": [],
      "stateMutability": "nonpayable",
      "type": "function"
    },
    {
      "inputs": [
        {
          "internalType": "bytes32",
          "name": "role",
          "type": "bytes32"
        },
        {
          "internalType": "address",
          "name": "account",
          "type": "address"
        }
      ],
      "name": "hasRole",
      "outputs": [
        {
          "internalType": "bool",
          "name": "",
          "type": "bool"
        }
      ],
      "stateMutability": "view",
      "type": "function"
    },
    {
      "inputs": [
        {
          "internalType": "address",
          "name": "owner",
          "type": "address"
        },
        {
          "internalType": "address",
          "name": "operator",
          "type": "address"
        }
      ],
      "name": "isApprovedForAll",
      "outputs": [
        {
          "internalType": "bool",
          "name": "",
          "type": "bool"
        }
      ],
      "stateMutability": "view",
      "type": "function"
    },
    {
      "inputs": [],
      "name": "name",
      "outputs": [
        {
          "internalType": "string",
          "name": "",
          "type": "string"
        }
      ],
      "stateMutability": "view",
      "type": "function"
    },
    {
      "inputs": [
        {
          "internalType": "uint256",
          "name": "tokenId",
          "type": "uint256"
        }
      ],
      "name": "ownerOf",
      "outputs": [
        {
          "internalType": "address",
          "name": "",
          "type": "address"
        }
      ],
      "stateMutability": "view",
      "type": "function"
    },
    {
      "inputs": [
        {
          "internalType": "bytes32",
          "name": "role",
          "type": "bytes32"
        },
        {
          "internalType": "address",
          "name": "account",
          "type": "address"
        }
      ],
      "name": "renounceRole",
      "outputs": [],
      "stateMutability": "nonpayable",
      "type": "function"
    },
    {
      "inputs": [
        {
          "internalType": "bytes32",
          "name": "role",
          "type": "bytes32"
        },
        {
          "internalType": "address",
          "name": "account",
          "type": "address"
        }
      ],
      "name": "revokeRole",
      "outputs": [],
      "stateMutability": "nonpayable",
      "type": "function"
    },
    {
      "inputs": [
        {
          "internalType": "address",
          "name": "to",
          "type": "address"
        },
        {
          "internalType": "string",
          "name": "uri",
          "type": "string"
        }
      ],
      "name": "safeMint",
      "outputs": [
        {
          "internalType": "uint256",
          "name": "_tokenId",
          "type": "uint256"
        }
      ],
      "stateMutability": "nonpayable",
      "type": "function"
    },
    {
      "inputs": [
        {
          "internalType": "address",
          "name": "from",
          "type": "address"
        },
        {
          "internalType": "address",
          "name": "to",
          "type": "address"
        },
        {
          "internalType": "uint256",
          "name": "tokenId",
          "type": "uint256"
        }
      ],
      "name": "safeTransferFrom",
      "outputs": [],
      "stateMutability": "nonpayable",
      "type": "function"
    },
    {
      "inputs": [
        {
          "internalType": "address",
          "name": "from",
          "type": "address"
        },
        {
          "internalType": "address",
          "name": "to",
          "type": "address"
        },
        {
          "internalType": "uint256",
          "name": "tokenId",
          "type": "uint256"
        },
        {
          "internalType": "bytes",
          "name": "data",
          "type": "bytes"
        }
      ],
      "name": "safeTransferFrom",
      "outputs": [],
      "stateMutability": "nonpayable",
      "type": "function"
    },
    {
      "inputs": [
        {
          "internalType": "address",
          "name": "operator",
          "type": "address"
        },
        {
          "internalType": "bool",
          "name": "approved",
          "type": "bool"
        }
      ],
      "name": "setApprovalForAll",
      "outputs": [],
      "stateMutability": "nonpayable",
      "type": "function"
    },
    {
      "inputs": [
        {
          "internalType": "bytes4",
          "name": "interfaceId",
          "type": "bytes4"
        }
      ],
      "name": "supportsInterface",
      "outputs": [
        {
          "internalType": "bool",
          "name": "",
          "type": "bool"
        }
      ],
      "stateMutability": "view",
      "type": "function"
    },
    {
      "inputs": [],
      "name": "symbol",
      "outputs": [
        {
          "internalType": "string",
          "name": "",
          "type": "string"
        }
      ],
      "stateMutability": "view",
      "type": "function"
    },
    {
      "inputs": [
        {
          "internalType": "uint256",
          "name": "tokenId",
          "type": "uint256"
        }
      ],
      "name": "tokenURI",
      "outputs": [
        {
          "internalType": "string",
          "name": "",
          "type": "string"
        }
      ],
      "stateMutability": "view",
      "type": "function"
    },
    {
      "inputs": [
        {
          "internalType": "address",
          "name": "from",
          "type": "address"
        },
        {
          "internalType": "address",
          "name": "to",
          "type": "address"
        },
        {
          "internalType": "uint256",
          "name": "tokenId",
          "type": "uint256"
        }
      ],
      "name": "transferFrom",
      "outputs": [],
      "stateMutability": "nonpayable",
      "type": "function"
    },
    {
      "inputs": [
        {
          "internalType": "uint256",
          "name": "_tokenId",
          "type": "uint256"
        },
        {
          "internalType": "string",
          "name": "_tokenURI",
          "type": "string"
        }
      ],
      "name": "updateTokenURI",
      "outputs": [],
      "stateMutability": "nonpayable",
      "type": "function"
    }
  ],
  "bytecode": "0x60806040523480156200001157600080fd5b506040518060400160405280600b81526020017f416e696d6553747564696f0000000000000000000000000000000000000000008152506040518060400160405280600481526020017f414e53540000000000000000000000000000000000000000000000000000000081525081600090805190602001906200009692919062000264565b508060019080519060200190620000af92919062000264565b505050620000c76000801b33620000ff60201b60201c565b620000f97fa49807205ce4d355092ef5a8a18f56e8913cf4a201fbe287825b095693c2177533620000ff60201b60201c565b62000379565b620001118282620001f160201b60201c565b620001ed5760016007600084815260200190815260200160002060000160008373ffffffffffffffffffffffffffffffffffffffff1673ffffffffffffffffffffffffffffffffffffffff16815260200190815260200160002060006101000a81548160ff021916908315150217905550620001926200025c60201b60201c565b73ffffffffffffffffffffffffffffffffffffffff168173ffffffffffffffffffffffffffffffffffffffff16837f2f8788117e7eff1d82e926ec794901d17c78024a50270940304540a733656f0d60405160405180910390a45b5050565b60006007600084815260200190815260200160002060000160008373ffffffffffffffffffffffffffffffffffffffff1673ffffffffffffffffffffffffffffffffffffffff16815260200190815260200160002060009054906101000a900460ff16905092915050565b600033905090565b828054620002729062000343565b90600052602060002090601f016020900481019282620002965760008555620002e2565b82601f10620002b157805160ff1916838001178555620002e2565b82800160010185558215620002e2579182015b82811115620002e1578251825591602001919060010190620002c4565b5b509050620002f19190620002f5565b5090565b5b8082111562000310576000816000905550600101620002f6565b5090565b7f4e487b7100000000000000000000000000000000000000000000000000000000600052602260045260246000fd5b600060028204905060018216806200035c57607f821691505b6020821081141562000373576200037262000314565b5b50919050565b61393580620003896000396000f3fe608060405234801561001057600080fd5b50600436106101585760003560e01c806370a08231116100c3578063b88d4fde1161007c578063b88d4fde146103e9578063c87b56dd14610405578063d204c45e14610435578063d547741f14610465578063e58378bb14610481578063e985e9c51461049f57610158565b806370a082311461031357806375b238fc1461034357806391d148541461036157806395d89b4114610391578063a217fddf146103af578063a22cb465146103cd57610158565b8063248a9ca311610115578063248a9ca31461022f5780632f2ff15d1461025f57806336568abe1461027b57806342842e0e146102975780634f558e79146102b35780636352211e146102e357610158565b806301ffc9a71461015d57806306fdde031461018d578063081812fc146101ab578063095ea7b3146101db57806318e97fd1146101f757806323b872dd14610213575b600080fd5b610177600480360381019061017291906125a1565b6104cf565b60405161018491906125e9565b60405180910390f35b6101956104e1565b6040516101a2919061269d565b60405180910390f35b6101c560048036038101906101c091906126f5565b610573565b6040516101d29190612763565b60405180910390f35b6101f560048036038101906101f091906127aa565b6105b9565b005b610211600480360381019061020c919061291f565b6106d1565b005b61022d6004803603810190610228919061297b565b610780565b005b61024960048036038101906102449190612a04565b6107e0565b6040516102569190612a40565b60405180910390f35b61027960048036038101906102749190612a5b565b610800565b005b61029560048036038101906102909190612a5b565b610821565b005b6102b160048036038101906102ac919061297b565b6108a4565b005b6102cd60048036038101906102c891906126f5565b6108c4565b6040516102da91906125e9565b60405180910390f35b6102fd60048036038101906102f891906126f5565b6108d6565b60405161030a9190612763565b60405180910390f35b61032d60048036038101906103289190612a9b565b61095d565b60405161033a9190612ad7565b60405180910390f35b61034b610a15565b6040516103589190612a40565b60405180910390f35b61037b60048036038101906103769190612a5b565b610a39565b60405161038891906125e9565b60405180910390f35b610399610aa4565b6040516103a6919061269d565b60405180910390f35b6103b7610b36565b6040516103c49190612a40565b60405180910390f35b6103e760048036038101906103e29190612b1e565b610b3d565b005b61040360048036038101906103fe9190612bff565b610b53565b005b61041f600480360381019061041a91906126f5565b610bb5565b60405161042c919061269d565b60405180910390f35b61044f600480360381019061044a9190612c82565b610bc7565b60405161045c9190612ad7565b60405180910390f35b61047f600480360381019061047a9190612a5b565b610c54565b005b610489610c75565b6040516104969190612a40565b60405180910390f35b6104b960048036038101906104b49190612cde565b610c99565b6040516104c691906125e9565b60405180910390f35b60006104da82610d2d565b9050919050565b6060600080546104f090612d4d565b80601f016020809104026020016040519081016040528092919081815260200182805461051c90612d4d565b80156105695780601f1061053e57610100808354040283529160200191610569565b820191906000526020600020905b81548152906001019060200180831161054c57829003601f168201915b5050505050905090565b600061057e82610da7565b6004600083815260200190815260200160002060009054906101000a900473ffffffffffffffffffffffffffffffffffffffff169050919050565b60006105c4826108d6565b90508073ffffffffffffffffffffffffffffffffffffffff168373ffffffffffffffffffffffffffffffffffffffff161415610635576040517f08c379a000000000000000000000000000000000000000000000000000000000815260040161062c90612df1565b60405180910390fd5b8073ffffffffffffffffffffffffffffffffffffffff16610654610df2565b73ffffffffffffffffffffffffffffffffffffffff16148061068357506106828161067d610df2565b610c99565b5b6106c2576040517f08c379a00000000000000000000000000000000000000000000000000000000081526004016106b990612e83565b60405180910390fd5b6106cc8383610dfa565b505050565b7fb19546dff01e856fb3f010c267a7b1c60363cf8a4664e21cc89c26224620214e6106fb81610eb3565b3373ffffffffffffffffffffffffffffffffffffffff1661071b846108d6565b73ffffffffffffffffffffffffffffffffffffffff1614610771576040517f08c379a000000000000000000000000000000000000000000000000000000000815260040161076890612f15565b60405180910390fd5b61077b8383610ec7565b505050565b61079161078b610df2565b82610f3b565b6107d0576040517f08c379a00000000000000000000000000000000000000000000000000000000081526004016107c790612fa7565b60405180910390fd5b6107db838383610fd0565b505050565b600060076000838152602001908152602001600020600101549050919050565b610809826107e0565b61081281610eb3565b61081c83836112ca565b505050565b610829610df2565b73ffffffffffffffffffffffffffffffffffffffff168173ffffffffffffffffffffffffffffffffffffffff1614610896576040517f08c379a000000000000000000000000000000000000000000000000000000000815260040161088d90613039565b60405180910390fd5b6108a082826113ab565b5050565b6108bf83838360405180602001604052806000815250610b53565b505050565b60006108cf8261148d565b9050919050565b6000806108e2836114ce565b9050600073ffffffffffffffffffffffffffffffffffffffff168173ffffffffffffffffffffffffffffffffffffffff161415610954576040517f08c379a000000000000000000000000000000000000000000000000000000000815260040161094b906130a5565b60405180910390fd5b80915050919050565b60008073ffffffffffffffffffffffffffffffffffffffff168273ffffffffffffffffffffffffffffffffffffffff1614156109ce576040517f08c379a00000000000000000000000000000000000000000000000000000000081526004016109c590613137565b60405180910390fd5b600360008373ffffffffffffffffffffffffffffffffffffffff1673ffffffffffffffffffffffffffffffffffffffff168152602001908152602001600020549050919050565b7fa49807205ce4d355092ef5a8a18f56e8913cf4a201fbe287825b095693c2177581565b60006007600084815260200190815260200160002060000160008373ffffffffffffffffffffffffffffffffffffffff1673ffffffffffffffffffffffffffffffffffffffff16815260200190815260200160002060009054906101000a900460ff16905092915050565b606060018054610ab390612d4d565b80601f0160208091040260200160405190810160405280929190818152602001828054610adf90612d4d565b8015610b2c5780601f10610b0157610100808354040283529160200191610b2c565b820191906000526020600020905b815481529060010190602001808311610b0f57829003601f168201915b5050505050905090565b6000801b81565b610b4f610b48610df2565b838361150b565b5050565b610b64610b5e610df2565b83610f3b565b610ba3576040517f08c379a0000000000000000000000000000000000000000000000000000000008152600401610b9a90612fa7565b60405180910390fd5b610baf84848484611678565b50505050565b6060610bc0826116d4565b9050919050565b60007fa49807205ce4d355092ef5a8a18f56e8913cf4a201fbe287825b095693c21775610bf381610eb3565b6000610bff60086117e7565b9050610c0b60086117f5565b809250610c18858261180b565b610c228185610ec7565b610c4c7fb19546dff01e856fb3f010c267a7b1c60363cf8a4664e21cc89c26224620214e866112ca565b505092915050565b610c5d826107e0565b610c6681610eb3565b610c7083836113ab565b505050565b7fb19546dff01e856fb3f010c267a7b1c60363cf8a4664e21cc89c26224620214e81565b6000600560008473ffffffffffffffffffffffffffffffffffffffff1673ffffffffffffffffffffffffffffffffffffffff16815260200190815260200160002060008373ffffffffffffffffffffffffffffffffffffffff1673ffffffffffffffffffffffffffffffffffffffff16815260200190815260200160002060009054906101000a900460ff16905092915050565b60007f7965db0b000000000000000000000000000000000000000000000000000000007bffffffffffffffffffffffffffffffffffffffffffffffffffffffff1916827bffffffffffffffffffffffffffffffffffffffffffffffffffffffff19161480610da05750610d9f82611829565b5b9050919050565b610db08161148d565b610def576040517f08c379a0000000000000000000000000000000000000000000000000000000008152600401610de6906130a5565b60405180910390fd5b50565b600033905090565b816004600083815260200190815260200160002060006101000a81548173ffffffffffffffffffffffffffffffffffffffff021916908373ffffffffffffffffffffffffffffffffffffffff160217905550808273ffffffffffffffffffffffffffffffffffffffff16610e6d836108d6565b73ffffffffffffffffffffffffffffffffffffffff167f8c5be1e5ebec7d5bd14f71427d1e84f3dd0314c0f7b2291e5b200ac8c7c3b92560405160405180910390a45050565b610ec481610ebf610df2565b61190b565b50565b610ed08261148d565b610f0f576040517f08c379a0000000000000000000000000000000000000000000000000000000008152600401610f06906131c9565b60405180910390fd5b80600660008481526020019081526020016000209080519060200190610f36929190612492565b505050565b600080610f47836108d6565b90508073ffffffffffffffffffffffffffffffffffffffff168473ffffffffffffffffffffffffffffffffffffffff161480610f895750610f888185610c99565b5b80610fc757508373ffffffffffffffffffffffffffffffffffffffff16610faf84610573565b73ffffffffffffffffffffffffffffffffffffffff16145b91505092915050565b8273ffffffffffffffffffffffffffffffffffffffff16610ff0826108d6565b73ffffffffffffffffffffffffffffffffffffffff1614611046576040517f08c379a000000000000000000000000000000000000000000000000000000000815260040161103d9061325b565b60405180910390fd5b600073ffffffffffffffffffffffffffffffffffffffff168273ffffffffffffffffffffffffffffffffffffffff1614156110b6576040517f08c379a00000000000000000000000000000000000000000000000000000000081526004016110ad906132ed565b60405180910390fd5b6110c38383836001611990565b8273ffffffffffffffffffffffffffffffffffffffff166110e3826108d6565b73ffffffffffffffffffffffffffffffffffffffff1614611139576040517f08c379a00000000000000000000000000000000000000000000000000000000081526004016111309061325b565b60405180910390fd5b6004600082815260200190815260200160002060006101000a81549073ffffffffffffffffffffffffffffffffffffffff02191690556001600360008573ffffffffffffffffffffffffffffffffffffffff1673ffffffffffffffffffffffffffffffffffffffff168152602001908152602001600020600082825403925050819055506001600360008473ffffffffffffffffffffffffffffffffffffffff1673ffffffffffffffffffffffffffffffffffffffff16815260200190815260200160002060008282540192505081905550816002600083815260200190815260200160002060006101000a81548173ffffffffffffffffffffffffffffffffffffffff021916908373ffffffffffffffffffffffffffffffffffffffff160217905550808273ffffffffffffffffffffffffffffffffffffffff168473ffffffffffffffffffffffffffffffffffffffff167fddf252ad1be2c89b69c2b068fc378daa952ba7f163c4a11628f55a4df523b3ef60405160405180910390a46112c58383836001611ab6565b505050565b6112d48282610a39565b6113a75760016007600084815260200190815260200160002060000160008373ffffffffffffffffffffffffffffffffffffffff1673ffffffffffffffffffffffffffffffffffffffff16815260200190815260200160002060006101000a81548160ff02191690831515021790555061134c610df2565b73ffffffffffffffffffffffffffffffffffffffff168173ffffffffffffffffffffffffffffffffffffffff16837f2f8788117e7eff1d82e926ec794901d17c78024a50270940304540a733656f0d60405160405180910390a45b5050565b6113b58282610a39565b156114895760006007600084815260200190815260200160002060000160008373ffffffffffffffffffffffffffffffffffffffff1673ffffffffffffffffffffffffffffffffffffffff16815260200190815260200160002060006101000a81548160ff02191690831515021790555061142e610df2565b73ffffffffffffffffffffffffffffffffffffffff168173ffffffffffffffffffffffffffffffffffffffff16837ff6391f5c32d9c69d2a47ea670b442974b53935d1edc7fd64eb21e047a839171b60405160405180910390a45b5050565b60008073ffffffffffffffffffffffffffffffffffffffff166114af836114ce565b73ffffffffffffffffffffffffffffffffffffffff1614159050919050565b60006002600083815260200190815260200160002060009054906101000a900473ffffffffffffffffffffffffffffffffffffffff169050919050565b8173ffffffffffffffffffffffffffffffffffffffff168373ffffffffffffffffffffffffffffffffffffffff16141561157a576040517f08c379a000000000000000000000000000000000000000000000000000000000815260040161157190613359565b60405180910390fd5b80600560008573ffffffffffffffffffffffffffffffffffffffff1673ffffffffffffffffffffffffffffffffffffffff16815260200190815260200160002060008473ffffffffffffffffffffffffffffffffffffffff1673ffffffffffffffffffffffffffffffffffffffff16815260200190815260200160002060006101000a81548160ff0219169083151502179055508173ffffffffffffffffffffffffffffffffffffffff168373ffffffffffffffffffffffffffffffffffffffff167f17307eab39ab6107e8899845ad3d59bd9653f200f220920489ca2b5937696c318360405161166b91906125e9565b60405180910390a3505050565b611683848484610fd0565b61168f84848484611abc565b6116ce576040517f08c379a00000000000000000000000000000000000000000000000000000000081526004016116c5906133eb565b60405180910390fd5b50505050565b60606116df82610da7565b60006006600084815260200190815260200160002080546116ff90612d4d565b80601f016020809104026020016040519081016040528092919081815260200182805461172b90612d4d565b80156117785780601f1061174d57610100808354040283529160200191611778565b820191906000526020600020905b81548152906001019060200180831161175b57829003601f168201915b505050505090506000611789611c53565b905060008151141561179f5781925050506117e2565b6000825111156117d45780826040516020016117bc929190613447565b604051602081830303815290604052925050506117e2565b6117dd84611c90565b925050505b919050565b600081600001549050919050565b6001816000016000828254019250508190555050565b611825828260405180602001604052806000815250611cf8565b5050565b60007f80ac58cd000000000000000000000000000000000000000000000000000000007bffffffffffffffffffffffffffffffffffffffffffffffffffffffff1916827bffffffffffffffffffffffffffffffffffffffffffffffffffffffff191614806118f457507f5b5e139f000000000000000000000000000000000000000000000000000000007bffffffffffffffffffffffffffffffffffffffffffffffffffffffff1916827bffffffffffffffffffffffffffffffffffffffffffffffffffffffff1916145b80611904575061190382611d53565b5b9050919050565b6119158282610a39565b61198c5761192281611dbd565b6119308360001c6020611dea565b604051602001611941929190613503565b6040516020818303038152906040526040517f08c379a0000000000000000000000000000000000000000000000000000000008152600401611983919061269d565b60405180910390fd5b5050565b6001811115611ab057600073ffffffffffffffffffffffffffffffffffffffff168473ffffffffffffffffffffffffffffffffffffffff1614611a245780600360008673ffffffffffffffffffffffffffffffffffffffff1673ffffffffffffffffffffffffffffffffffffffff1681526020019081526020016000206000828254611a1c919061356c565b925050819055505b600073ffffffffffffffffffffffffffffffffffffffff168373ffffffffffffffffffffffffffffffffffffffff1614611aaf5780600360008573ffffffffffffffffffffffffffffffffffffffff1673ffffffffffffffffffffffffffffffffffffffff1681526020019081526020016000206000828254611aa791906135a0565b925050819055505b5b50505050565b50505050565b6000611add8473ffffffffffffffffffffffffffffffffffffffff16612026565b15611c46578373ffffffffffffffffffffffffffffffffffffffff1663150b7a02611b06610df2565b8786866040518563ffffffff1660e01b8152600401611b28949392919061364b565b602060405180830381600087803b158015611b4257600080fd5b505af1925050508015611b7357506040513d601f19601f82011682018060405250810190611b7091906136ac565b60015b611bf6573d8060008114611ba3576040519150601f19603f3d011682016040523d82523d6000602084013e611ba8565b606091505b50600081511415611bee576040517f08c379a0000000000000000000000000000000000000000000000000000000008152600401611be5906133eb565b60405180910390fd5b805181602001fd5b63150b7a0260e01b7bffffffffffffffffffffffffffffffffffffffffffffffffffffffff1916817bffffffffffffffffffffffffffffffffffffffffffffffffffffffff191614915050611c4b565b600190505b949350505050565b60606040518060400160405280600781526020017f697066733a2f2f00000000000000000000000000000000000000000000000000815250905090565b6060611c9b82610da7565b6000611ca5611c53565b90506000815111611cc55760405180602001604052806000815250611cf0565b80611ccf84612049565b604051602001611ce0929190613447565b6040516020818303038152906040525b915050919050565b611d028383612121565b611d0f6000848484611abc565b611d4e576040517f08c379a0000000000000000000000000000000000000000000000000000000008152600401611d45906133eb565b60405180910390fd5b505050565b60007f01ffc9a7000000000000000000000000000000000000000000000000000000007bffffffffffffffffffffffffffffffffffffffffffffffffffffffff1916827bffffffffffffffffffffffffffffffffffffffffffffffffffffffff1916149050919050565b6060611de38273ffffffffffffffffffffffffffffffffffffffff16601460ff16611dea565b9050919050565b606060006002836002611dfd91906136d9565b611e0791906135a0565b67ffffffffffffffff811115611e2057611e1f6127f4565b5b6040519080825280601f01601f191660200182016040528015611e525781602001600182028036833780820191505090505b5090507f300000000000000000000000000000000000000000000000000000000000000081600081518110611e8a57611e89613733565b5b60200101907effffffffffffffffffffffffffffffffffffffffffffffffffffffffffffff1916908160001a9053507f780000000000000000000000000000000000000000000000000000000000000081600181518110611eee57611eed613733565b5b60200101907effffffffffffffffffffffffffffffffffffffffffffffffffffffffffffff1916908160001a90535060006001846002611f2e91906136d9565b611f3891906135a0565b90505b6001811115611fd8577f3031323334353637383961626364656600000000000000000000000000000000600f861660108110611f7a57611f79613733565b5b1a60f81b828281518110611f9157611f90613733565b5b60200101907effffffffffffffffffffffffffffffffffffffffffffffffffffffffffffff1916908160001a905350600485901c945080611fd190613762565b9050611f3b565b506000841461201c576040517f08c379a0000000000000000000000000000000000000000000000000000000008152600401612013906137d8565b60405180910390fd5b8091505092915050565b6000808273ffffffffffffffffffffffffffffffffffffffff163b119050919050565b6060600060016120588461233f565b01905060008167ffffffffffffffff811115612077576120766127f4565b5b6040519080825280601f01601f1916602001820160405280156120a95781602001600182028036833780820191505090505b509050600082602001820190505b600115612116578080600190039150507f3031323334353637383961626364656600000000000000000000000000000000600a86061a8153600a8581612100576120ff6137f8565b5b049450600085141561211157612116565b6120b7565b819350505050919050565b600073ffffffffffffffffffffffffffffffffffffffff168273ffffffffffffffffffffffffffffffffffffffff161415612191576040517f08c379a000000000000000000000000000000000000000000000000000000000815260040161218890613873565b60405180910390fd5b61219a8161148d565b156121da576040517f08c379a00000000000000000000000000000000000000000000000000000000081526004016121d1906138df565b60405180910390fd5b6121e8600083836001611990565b6121f18161148d565b15612231576040517f08c379a0000000000000000000000000000000000000000000000000000000008152600401612228906138df565b60405180910390fd5b6001600360008473ffffffffffffffffffffffffffffffffffffffff1673ffffffffffffffffffffffffffffffffffffffff16815260200190815260200160002060008282540192505081905550816002600083815260200190815260200160002060006101000a81548173ffffffffffffffffffffffffffffffffffffffff021916908373ffffffffffffffffffffffffffffffffffffffff160217905550808273ffffffffffffffffffffffffffffffffffffffff16600073ffffffffffffffffffffffffffffffffffffffff167fddf252ad1be2c89b69c2b068fc378daa952ba7f163c4a11628f55a4df523b3ef60405160405180910390a461233b600083836001611ab6565b5050565b600080600090507a184f03e93ff9f4daa797ed6e38ed64bf6a1f010000000000000000831061239d577a184f03e93ff9f4daa797ed6e38ed64bf6a1f0100000000000000008381612393576123926137f8565b5b0492506040810190505b6d04ee2d6d415b85acef810000000083106123da576d04ee2d6d415b85acef810000000083816123d0576123cf6137f8565b5b0492506020810190505b662386f26fc10000831061240957662386f26fc1000083816123ff576123fe6137f8565b5b0492506010810190505b6305f5e1008310612432576305f5e1008381612428576124276137f8565b5b0492506008810190505b612710831061245757612710838161244d5761244c6137f8565b5b0492506004810190505b6064831061247a57606483816124705761246f6137f8565b5b0492506002810190505b600a8310612489576001810190505b80915050919050565b82805461249e90612d4d565b90600052602060002090601f0160209004810192826124c05760008555612507565b82601f106124d957805160ff1916838001178555612507565b82800160010185558215612507579182015b828111156125065782518255916020019190600101906124eb565b5b5090506125149190612518565b5090565b5b80821115612531576000816000905550600101612519565b5090565b6000604051905090565b600080fd5b600080fd5b60007fffffffff0000000000000000000000000000000000000000000000000000000082169050919050565b61257e81612549565b811461258957600080fd5b50565b60008135905061259b81612575565b92915050565b6000602082840312156125b7576125b661253f565b5b60006125c58482850161258c565b91505092915050565b60008115159050919050565b6125e3816125ce565b82525050565b60006020820190506125fe60008301846125da565b92915050565b600081519050919050565b600082825260208201905092915050565b60005b8381101561263e578082015181840152602081019050612623565b8381111561264d576000848401525b50505050565b6000601f19601f8301169050919050565b600061266f82612604565b612679818561260f565b9350612689818560208601612620565b61269281612653565b840191505092915050565b600060208201905081810360008301526126b78184612664565b905092915050565b6000819050919050565b6126d2816126bf565b81146126dd57600080fd5b50565b6000813590506126ef816126c9565b92915050565b60006020828403121561270b5761270a61253f565b5b6000612719848285016126e0565b91505092915050565b600073ffffffffffffffffffffffffffffffffffffffff82169050919050565b600061274d82612722565b9050919050565b61275d81612742565b82525050565b60006020820190506127786000830184612754565b92915050565b61278781612742565b811461279257600080fd5b50565b6000813590506127a48161277e565b92915050565b600080604083850312156127c1576127c061253f565b5b60006127cf85828601612795565b92505060206127e0858286016126e0565b9150509250929050565b600080fd5b600080fd5b7f4e487b7100000000000000000000000000000000000000000000000000000000600052604160045260246000fd5b61282c82612653565b810181811067ffffffffffffffff8211171561284b5761284a6127f4565b5b80604052505050565b600061285e612535565b905061286a8282612823565b919050565b600067ffffffffffffffff82111561288a576128896127f4565b5b61289382612653565b9050602081019050919050565b82818337600083830152505050565b60006128c26128bd8461286f565b612854565b9050828152602081018484840111156128de576128dd6127ef565b5b6128e98482856128a0565b509392505050565b600082601f830112612906576129056127ea565b5b81356129168482602086016128af565b91505092915050565b600080604083850312156129365761293561253f565b5b6000612944858286016126e0565b925050602083013567ffffffffffffffff81111561296557612964612544565b5b612971858286016128f1565b9150509250929050565b6000806000606084860312156129945761299361253f565b5b60006129a286828701612795565b93505060206129b386828701612795565b92505060406129c4868287016126e0565b9150509250925092565b6000819050919050565b6129e1816129ce565b81146129ec57600080fd5b50565b6000813590506129fe816129d8565b92915050565b600060208284031215612a1a57612a1961253f565b5b6000612a28848285016129ef565b91505092915050565b612a3a816129ce565b82525050565b6000602082019050612a556000830184612a31565b92915050565b60008060408385031215612a7257612a7161253f565b5b6000612a80858286016129ef565b9250506020612a9185828601612795565b9150509250929050565b600060208284031215612ab157612ab061253f565b5b6000612abf84828501612795565b91505092915050565b612ad1816126bf565b82525050565b6000602082019050612aec6000830184612ac8565b92915050565b612afb816125ce565b8114612b0657600080fd5b50565b600081359050612b1881612af2565b92915050565b60008060408385031215612b3557612b3461253f565b5b6000612b4385828601612795565b9250506020612b5485828601612b09565b9150509250929050565b600067ffffffffffffffff821115612b7957612b786127f4565b5b612b8282612653565b9050602081019050919050565b6000612ba2612b9d84612b5e565b612854565b905082815260208101848484011115612bbe57612bbd6127ef565b5b612bc98482856128a0565b509392505050565b600082601f830112612be657612be56127ea565b5b8135612bf6848260208601612b8f565b91505092915050565b60008060008060808587031215612c1957612c1861253f565b5b6000612c2787828801612795565b9450506020612c3887828801612795565b9350506040612c49878288016126e0565b925050606085013567ffffffffffffffff811115612c6a57612c69612544565b5b612c7687828801612bd1565b91505092959194509250565b60008060408385031215612c9957612c9861253f565b5b6000612ca785828601612795565b925050602083013567ffffffffffffffff811115612cc857612cc7612544565b5b612cd4858286016128f1565b9150509250929050565b60008060408385031215612cf557612cf461253f565b5b6000612d0385828601612795565b9250506020612d1485828601612795565b9150509250929050565b7f4e487b7100000000000000000000000000000000000000000000000000000000600052602260045260246000fd5b60006002820490506001821680612d6557607f821691505b60208210811415612d7957612d78612d1e565b5b50919050565b7f4552433732313a20617070726f76616c20746f2063757272656e74206f776e6560008201527f7200000000000000000000000000000000000000000000000000000000000000602082015250565b6000612ddb60218361260f565b9150612de682612d7f565b604082019050919050565b60006020820190508181036000830152612e0a81612dce565b9050919050565b7f4552433732313a20617070726f76652063616c6c6572206973206e6f7420746f60008201527f6b656e206f776e6572206f7220617070726f76656420666f7220616c6c000000602082015250565b6000612e6d603d8361260f565b9150612e7882612e11565b604082019050919050565b60006020820190508181036000830152612e9c81612e60565b9050919050565b7f4f6e6c7920746f6b656e206f776e65722063616e20757064617465207468652060008201527f746f6b656e5552492e0000000000000000000000000000000000000000000000602082015250565b6000612eff60298361260f565b9150612f0a82612ea3565b604082019050919050565b60006020820190508181036000830152612f2e81612ef2565b9050919050565b7f4552433732313a2063616c6c6572206973206e6f7420746f6b656e206f776e6560008201527f72206f7220617070726f76656400000000000000000000000000000000000000602082015250565b6000612f91602d8361260f565b9150612f9c82612f35565b604082019050919050565b60006020820190508181036000830152612fc081612f84565b9050919050565b7f416363657373436f6e74726f6c3a2063616e206f6e6c792072656e6f756e636560008201527f20726f6c657320666f722073656c660000000000000000000000000000000000602082015250565b6000613023602f8361260f565b915061302e82612fc7565b604082019050919050565b6000602082019050818103600083015261305281613016565b9050919050565b7f4552433732313a20696e76616c696420746f6b656e2049440000000000000000600082015250565b600061308f60188361260f565b915061309a82613059565b602082019050919050565b600060208201905081810360008301526130be81613082565b9050919050565b7f4552433732313a2061646472657373207a65726f206973206e6f74206120766160008201527f6c6964206f776e65720000000000000000000000000000000000000000000000602082015250565b600061312160298361260f565b915061312c826130c5565b604082019050919050565b6000602082019050818103600083015261315081613114565b9050919050565b7f45524337323155524953746f726167653a2055524920736574206f66206e6f6e60008201527f6578697374656e7420746f6b656e000000000000000000000000000000000000602082015250565b60006131b3602e8361260f565b91506131be82613157565b604082019050919050565b600060208201905081810360008301526131e2816131a6565b9050919050565b7f4552433732313a207472616e736665722066726f6d20696e636f72726563742060008201527f6f776e6572000000000000000000000000000000000000000000000000000000602082015250565b600061324560258361260f565b9150613250826131e9565b604082019050919050565b6000602082019050818103600083015261327481613238565b9050919050565b7f4552433732313a207472616e7366657220746f20746865207a65726f2061646460008201527f7265737300000000000000000000000000000000000000000000000000000000602082015250565b60006132d760248361260f565b91506132e28261327b565b604082019050919050565b60006020820190508181036000830152613306816132ca565b9050919050565b7f4552433732313a20617070726f766520746f2063616c6c657200000000000000600082015250565b600061334360198361260f565b915061334e8261330d565b602082019050919050565b6000602082019050818103600083015261337281613336565b9050919050565b7f4552433732313a207472616e7366657220746f206e6f6e20455243373231526560008201527f63656976657220696d706c656d656e7465720000000000000000000000000000602082015250565b60006133d560328361260f565b91506133e082613379565b604082019050919050565b60006020820190508181036000830152613404816133c8565b9050919050565b600081905092915050565b600061342182612604565b61342b818561340b565b935061343b818560208601612620565b80840191505092915050565b60006134538285613416565b915061345f8284613416565b91508190509392505050565b7f416363657373436f6e74726f6c3a206163636f756e7420000000000000000000600082015250565b60006134a160178361340b565b91506134ac8261346b565b601782019050919050565b7f206973206d697373696e6720726f6c6520000000000000000000000000000000600082015250565b60006134ed60118361340b565b91506134f8826134b7565b601182019050919050565b600061350e82613494565b915061351a8285613416565b9150613525826134e0565b91506135318284613416565b91508190509392505050565b7f4e487b7100000000000000000000000000000000000000000000000000000000600052601160045260246000fd5b6000613577826126bf565b9150613582836126bf565b9250828210156135955761359461353d565b5b828203905092915050565b60006135ab826126bf565b91506135b6836126bf565b9250827fffffffffffffffffffffffffffffffffffffffffffffffffffffffffffffffff038211156135eb576135ea61353d565b5b828201905092915050565b600081519050919050565b600082825260208201905092915050565b600061361d826135f6565b6136278185613601565b9350613637818560208601612620565b61364081612653565b840191505092915050565b60006080820190506136606000830187612754565b61366d6020830186612754565b61367a6040830185612ac8565b818103606083015261368c8184613612565b905095945050505050565b6000815190506136a681612575565b92915050565b6000602082840312156136c2576136c161253f565b5b60006136d084828501613697565b91505092915050565b60006136e4826126bf565b91506136ef836126bf565b9250817fffffffffffffffffffffffffffffffffffffffffffffffffffffffffffffffff04831182151516156137285761372761353d565b5b828202905092915050565b7f4e487b7100000000000000000000000000000000000000000000000000000000600052603260045260246000fd5b600061376d826126bf565b915060008214156137815761378061353d565b5b600182039050919050565b7f537472696e67733a20686578206c656e67746820696e73756666696369656e74600082015250565b60006137c260208361260f565b91506137cd8261378c565b602082019050919050565b600060208201905081810360008301526137f1816137b5565b9050919050565b7f4e487b7100000000000000000000000000000000000000000000000000000000600052601260045260246000fd5b7f4552433732313a206d696e7420746f20746865207a65726f2061646472657373600082015250565b600061385d60208361260f565b915061386882613827565b602082019050919050565b6000602082019050818103600083015261388c81613850565b9050919050565b7f4552433732313a20746f6b656e20616c7265616479206d696e74656400000000600082015250565b60006138c9601c8361260f565b91506138d482613893565b602082019050919050565b600060208201905081810360008301526138f8816138bc565b905091905056fea264697066735822122047a9c39446adcf765d4f73dcd53edca698ac954891c8e584e38ae2d9eac5919364736f6c63430008090033",
  "linkReferences": {},
  "deployedLinkReferences": {}
}