{
  "_format": "hh-sol-artifact-1",
  "contractName": "AnimeStudio",
  "sourceName": "contracts/AnimeStudio.sol",
  "abi": [
    {
      "inputs": [
        {
          "internalType": "address",
          "name": "_animeStudioToken",
          "type": "address"
        },
        {
          "internalType": "uint256",
          "name": "_conversionRatio",
          "type": "uint256"
        }
      ],
      "stateMutability": "nonpayable",
      "type": "constructor"
    },
    {
      "anonymous": false,
      "inputs": [
        {
          "indexed": false,
          "internalType": "address",
          "name": "buyer",
          "type": "address"
        },
        {
          "indexed": false,
          "internalType": "uint256",
          "name": "price",
          "type": "uint256"
        }
      ],
      "name": "VideoAccessBuy",
      "type": "event"
    },
    {
      "anonymous": false,
      "inputs": [
        {
          "indexed": false,
          "internalType": "address",
          "name": "creator",
          "type": "address"
        },
        {
          "indexed": false,
          "internalType": "address",
          "name": "grantedAddress",
          "type": "address"
        }
      ],
      "name": "VideoAccessGranted",
      "type": "event"
    },
    {
      "anonymous": false,
      "inputs": [
        {
          "indexed": false,
          "internalType": "address",
          "name": "creator",
          "type": "address"
        },
        {
          "indexed": false,
          "internalType": "address",
          "name": "revokedAddress",
          "type": "address"
        }
      ],
      "name": "VideoAccessRevoked",
      "type": "event"
    },
    {
      "anonymous": false,
      "inputs": [
        {
          "indexed": false,
          "internalType": "address",
          "name": "creator",
          "type": "address"
        },
        {
          "indexed": false,
          "internalType": "uint256",
          "name": "price",
          "type": "uint256"
        },
        {
          "indexed": false,
          "internalType": "uint256",
          "name": "tokenId",
          "type": "uint256"
        }
      ],
      "name": "VideoAdded",
      "type": "event"
    },
    {
      "inputs": [
        {
          "internalType": "string",
          "name": "_ipfsVideo",
          "type": "string"
        },
        {
          "internalType": "string",
          "name": "_ipfsVideoMetadata",
          "type": "string"
        },
        {
          "internalType": "uint256",
          "name": "_price",
          "type": "uint256"
        }
      ],
      "name": "addVideo",
      "outputs": [
        {
          "internalType": "uint256",
          "name": "tokenId",
          "type": "uint256"
        }
      ],
      "stateMutability": "nonpayable",
      "type": "function"
    },
    {
      "inputs": [],
      "name": "buyTokens",
      "outputs": [],
      "stateMutability": "payable",
      "type": "function"
    },
    {
      "inputs": [
        {
          "internalType": "uint256",
          "name": "_tokenId",
          "type": "uint256"
        }
      ],
      "name": "buyVideoAccess",
      "outputs": [],
      "stateMutability": "nonpayable",
      "type": "function"
    },
    {
      "inputs": [],
      "name": "conversionRatio",
      "outputs": [
        {
          "internalType": "uint256",
          "name": "",
          "type": "uint256"
        }
      ],
      "stateMutability": "view",
      "type": "function"
    },
    {
      "inputs": [
        {
          "internalType": "uint256",
          "name": "_fromTokenId",
          "type": "uint256"
        },
        {
          "internalType": "uint256",
          "name": "_toTokenId",
          "type": "uint256"
        }
      ],
      "name": "getVideosInRange",
      "outputs": [
        {
          "internalType": "address[]",
          "name": "",
          "type": "address[]"
        },
        {
          "internalType": "string[]",
          "name": "",
          "type": "string[]"
        },
        {
          "internalType": "uint256[]",
          "name": "",
          "type": "uint256[]"
        }
      ],
      "stateMutability": "view",
      "type": "function"
    },
    {
      "inputs": [
        {
          "internalType": "uint256",
          "name": "_tokenId",
          "type": "uint256"
        },
        {
          "internalType": "address",
          "name": "_grantedAddress",
          "type": "address"
        }
      ],
      "name": "grantVideoAccess",
      "outputs": [],
      "stateMutability": "nonpayable",
      "type": "function"
    },
    {
      "inputs": [
        {
          "internalType": "uint256",
          "name": "_tokenId",
          "type": "uint256"
        },
        {
          "internalType": "address",
          "name": "_granteeAddress",
          "type": "address"
        }
      ],
      "name": "hasAccess",
      "outputs": [
        {
          "internalType": "uint8",
          "name": "",
          "type": "uint8"
        }
      ],
      "stateMutability": "view",
      "type": "function"
    },
    {
      "inputs": [],
      "name": "nftAddress",
      "outputs": [
        {
          "internalType": "address",
          "name": "",
          "type": "address"
        }
      ],
      "stateMutability": "view",
      "type": "function"
    },
    {
      "inputs": [
        {
          "internalType": "uint256",
          "name": "_tokenId",
          "type": "uint256"
        }
      ],
      "name": "retrieveVideoDetails",
      "outputs": [
        {
          "internalType": "address",
          "name": "creator",
          "type": "address"
        },
        {
          "internalType": "string",
          "name": "videoIpfs",
          "type": "string"
        },
        {
          "internalType": "string",
          "name": "metadataIpfs",
          "type": "string"
        },
        {
          "internalType": "uint256",
          "name": "price",
          "type": "uint256"
        }
      ],
      "stateMutability": "view",
      "type": "function"
    },
    {
      "inputs": [
        {
          "internalType": "uint256",
          "name": "_tokenId",
          "type": "uint256"
        },
        {
          "internalType": "address",
          "name": "_revokeAddress",
          "type": "address"
        }
      ],
      "name": "revokeVideoAccess",
      "outputs": [],
      "stateMutability": "nonpayable",
      "type": "function"
    },
    {
      "inputs": [],
      "name": "tokenAddress",
      "outputs": [
        {
          "internalType": "address",
          "name": "",
          "type": "address"
        }
      ],
      "stateMutability": "view",
      "type": "function"
    },
    {
      "inputs": [],
      "name": "totalVideos",
      "outputs": [
        {
          "internalType": "uint256",
          "name": "",
          "type": "uint256"
        }
      ],
      "stateMutability": "view",
      "type": "function"
    }
  ],
  "bytecode": "0x60806040523480156200001157600080fd5b50604051620065c1380380620065c18339818101604052810190620000379190620001a5565b6040516200004590620000f2565b604051809103906000f08015801562000062573d6000803e3d6000fd5b506000806101000a81548173ffffffffffffffffffffffffffffffffffffffff021916908373ffffffffffffffffffffffffffffffffffffffff16021790555081600160006101000a81548173ffffffffffffffffffffffffffffffffffffffff021916908373ffffffffffffffffffffffffffffffffffffffff160217905550806002819055505050620001ec565b613cbe806200290383390190565b600080fd5b600073ffffffffffffffffffffffffffffffffffffffff82169050919050565b6000620001328262000105565b9050919050565b620001448162000125565b81146200015057600080fd5b50565b600081519050620001648162000139565b92915050565b6000819050919050565b6200017f816200016a565b81146200018b57600080fd5b50565b6000815190506200019f8162000174565b92915050565b60008060408385031215620001bf57620001be62000100565b5b6000620001cf8582860162000153565b9250506020620001e2858286016200018e565b9150509250929050565b61270780620001fc6000396000f3fe6080604052600436106100a75760003560e01c80639d76ea58116100645780639d76ea58146101d0578063ced14198146101fb578063d0febe4c14610238578063e230a20814610242578063f8014d711461026d578063fc838c60146102ad576100a7565b806333fca8b1146100ac5780634917872e146100d757806352f8d10f146101005780635bf8633a1461013d5780636a520edd14610168578063966b281114610191575b600080fd5b3480156100b857600080fd5b506100c16102d6565b6040516100ce91906117d7565b60405180910390f35b3480156100e357600080fd5b506100fe60048036038101906100f99190611832565b6102dc565b005b34801561010c57600080fd5b50610127600480360381019061012291906119a5565b61084f565b60405161013491906117d7565b60405180910390f35b34801561014957600080fd5b50610152610a3d565b60405161015f9190611a71565b60405180910390f35b34801561017457600080fd5b5061018f600480360381019061018a9190611ab8565b610a66565b005b34801561019d57600080fd5b506101b860048036038101906101b39190611af8565b610b8a565b6040516101c793929190611dfe565b60405180910390f35b3480156101dc57600080fd5b506101e5610f87565b6040516101f29190611a71565b60405180910390f35b34801561020757600080fd5b50610222600480360381019061021d9190611ab8565b610fb1565b60405161022f9190611e66565b60405180910390f35b610240611102565b005b34801561024e57600080fd5b506102576111a6565b60405161026491906117d7565b60405180910390f35b34801561027957600080fd5b50610294600480360381019061028f9190611832565b6111ac565b6040516102a49493929190611ecb565b60405180910390f35b3480156102b957600080fd5b506102d460048036038101906102cf9190611ab8565b6114a9565b005b60025481565b60008054906101000a900473ffffffffffffffffffffffffffffffffffffffff1673ffffffffffffffffffffffffffffffffffffffff16634f558e79826040518263ffffffff1660e01b815260040161033591906117d7565b60206040518083038186803b15801561034d57600080fd5b505afa158015610361573d6000803e3d6000fd5b505050506040513d601f19601f820116820180604052508101906103859190611f56565b6103c4576040517f08c379a00000000000000000000000000000000000000000000000000000000081526004016103bb90611fcf565b60405180910390fd5b6000600460008381526020019081526020016000206040518060800160405290816000820160009054906101000a900473ffffffffffffffffffffffffffffffffffffffff1673ffffffffffffffffffffffffffffffffffffffff1673ffffffffffffffffffffffffffffffffffffffff16815260200160018201805461044a9061201e565b80601f01602080910402602001604051908101604052809291908181526020018280546104769061201e565b80156104c35780601f10610498576101008083540402835291602001916104c3565b820191906000526020600020905b8154815290600101906020018083116104a657829003601f168201915b505050505081526020016002820180546104dc9061201e565b80601f01602080910402602001604051908101604052809291908181526020018280546105089061201e565b80156105555780601f1061052a57610100808354040283529160200191610555565b820191906000526020600020905b81548152906001019060200180831161053857829003601f168201915b5050505050815260200160038201548152505090508060600151600160009054906101000a900473ffffffffffffffffffffffffffffffffffffffff1673ffffffffffffffffffffffffffffffffffffffff166370a08231336040518263ffffffff1660e01b81526004016105ca9190611a71565b60206040518083038186803b1580156105e257600080fd5b505afa1580156105f6573d6000803e3d6000fd5b505050506040513d601f19601f8201168201806040525081019061061a9190612065565b101561065b576040517f08c379a000000000000000000000000000000000000000000000000000000000815260040161065290612104565b60405180910390fd5b8060600151600160009054906101000a900473ffffffffffffffffffffffffffffffffffffffff1673ffffffffffffffffffffffffffffffffffffffff1663dd62ed3e33306040518363ffffffff1660e01b81526004016106bd929190612124565b60206040518083038186803b1580156106d557600080fd5b505afa1580156106e9573d6000803e3d6000fd5b505050506040513d601f19601f8201168201806040525081019061070d9190612065565b101561074e576040517f08c379a0000000000000000000000000000000000000000000000000000000008152600401610745906121bf565b60405180910390fd5b600160009054906101000a900473ffffffffffffffffffffffffffffffffffffffff1673ffffffffffffffffffffffffffffffffffffffff166323b872dd333084606001516040518463ffffffff1660e01b81526004016107b1939291906121df565b602060405180830381600087803b1580156107cb57600080fd5b505af11580156107df573d6000803e3d6000fd5b505050506040513d601f19601f820116820180604052508101906108039190611f56565b5061080e82336115cd565b7f1068cf09364d64b091240eaff30bea70e88877ef72b92521311fbc6d96529ede338260600151604051610843929190612216565b60405180910390a15050565b60008060008054906101000a900473ffffffffffffffffffffffffffffffffffffffff1673ffffffffffffffffffffffffffffffffffffffff1663d204c45e33866040518363ffffffff1660e01b81526004016108ad92919061223f565b602060405180830381600087803b1580156108c757600080fd5b505af11580156108db573d6000803e3d6000fd5b505050506040513d601f19601f820116820180604052508101906108ff9190612065565b9050600060405180608001604052803373ffffffffffffffffffffffffffffffffffffffff168152602001878152602001868152602001858152509050806004600084815260200190815260200160002060008201518160000160006101000a81548173ffffffffffffffffffffffffffffffffffffffff021916908373ffffffffffffffffffffffffffffffffffffffff16021790555060208201518160010190805190602001906109b392919061171b565b5060408201518160020190805190602001906109d092919061171b565b5060608201518160030155905050600560008154809291906109f19061229e565b91905055508192507f3cead379885827f799aabf6341fc643f9a90b4853074097cc01818610d082668338584604051610a2c939291906122e7565b60405180910390a150509392505050565b60008060009054906101000a900473ffffffffffffffffffffffffffffffffffffffff16905090565b3373ffffffffffffffffffffffffffffffffffffffff1660008054906101000a900473ffffffffffffffffffffffffffffffffffffffff1673ffffffffffffffffffffffffffffffffffffffff16636352211e846040518263ffffffff1660e01b8152600401610ad691906117d7565b60206040518083038186803b158015610aee57600080fd5b505afa158015610b02573d6000803e3d6000fd5b505050506040513d601f19601f82011682018060405250810190610b269190612333565b73ffffffffffffffffffffffffffffffffffffffff1614610b7c576040517f08c379a0000000000000000000000000000000000000000000000000000000008152600401610b73906123d2565b60405180910390fd5b610b868282611674565b5050565b606080606060008510158015610ba1575060055485105b8015610bad5750600084115b8015610bbb57506005548411155b8015610bc657508484115b610c05576040517f08c379a0000000000000000000000000000000000000000000000000000000008152600401610bfc90612464565b60405180910390fd5b60008585610c139190612484565b905060008167ffffffffffffffff811115610c3157610c3061187a565b5b604051908082528060200260200182016040528015610c5f5781602001602082028036833780820191505090505b50905060008267ffffffffffffffff811115610c7e57610c7d61187a565b5b604051908082528060200260200182016040528015610cac5781602001602082028036833780820191505090505b50905060008367ffffffffffffffff811115610ccb57610cca61187a565b5b604051908082528060200260200182016040528015610cfe57816020015b6060815260200190600190039081610ce95790505b5090506000808a90505b89811015610f71576000600460008381526020019081526020016000206040518060800160405290816000820160009054906101000a900473ffffffffffffffffffffffffffffffffffffffff1673ffffffffffffffffffffffffffffffffffffffff1673ffffffffffffffffffffffffffffffffffffffff168152602001600182018054610d969061201e565b80601f0160208091040260200160405190810160405280929190818152602001828054610dc29061201e565b8015610e0f5780601f10610de457610100808354040283529160200191610e0f565b820191906000526020600020905b815481529060010190602001808311610df257829003601f168201915b50505050508152602001600282018054610e289061201e565b80601f0160208091040260200160405190810160405280929190818152602001828054610e549061201e565b8015610ea15780601f10610e7657610100808354040283529160200191610ea1565b820191906000526020600020905b815481529060010190602001808311610e8457829003601f168201915b5050505050815260200160038201548152505090508060600151868481518110610ece57610ecd6124b8565b5b6020026020010181815250508060000151858481518110610ef257610ef16124b8565b5b602002602001019073ffffffffffffffffffffffffffffffffffffffff16908173ffffffffffffffffffffffffffffffffffffffff16815250508060400151848481518110610f4457610f436124b8565b5b60200260200101819052508280610f5a9061229e565b935050508080610f699061229e565b915050610d08565b5082828597509750975050505050509250925092565b6000600160009054906101000a900473ffffffffffffffffffffffffffffffffffffffff16905090565b60008060009054906101000a900473ffffffffffffffffffffffffffffffffffffffff1673ffffffffffffffffffffffffffffffffffffffff16634f558e79846040518263ffffffff1660e01b815260040161100d91906117d7565b60206040518083038186803b15801561102557600080fd5b505afa158015611039573d6000803e3d6000fd5b505050506040513d601f19601f8201168201806040525081019061105d9190611f56565b61109c576040517f08c379a000000000000000000000000000000000000000000000000000000000815260040161109390612533565b60405180910390fd5b6003600084815260200190815260200160002060008373ffffffffffffffffffffffffffffffffffffffff1673ffffffffffffffffffffffffffffffffffffffff16815260200190815260200160002060009054906101000a900460ff16905092915050565b6000600254346111129190612553565b9050600160009054906101000a900473ffffffffffffffffffffffffffffffffffffffff1673ffffffffffffffffffffffffffffffffffffffff166340c10f1933836040518363ffffffff1660e01b8152600401611171929190612216565b600060405180830381600087803b15801561118b57600080fd5b505af115801561119f573d6000803e3d6000fd5b5050505050565b60055481565b60006060806000806111be8633610fb1565b60ff1611806112a057503373ffffffffffffffffffffffffffffffffffffffff1660008054906101000a900473ffffffffffffffffffffffffffffffffffffffff1673ffffffffffffffffffffffffffffffffffffffff16636352211e876040518263ffffffff1660e01b815260040161123891906117d7565b60206040518083038186803b15801561125057600080fd5b505afa158015611264573d6000803e3d6000fd5b505050506040513d601f19601f820116820180604052508101906112889190612333565b73ffffffffffffffffffffffffffffffffffffffff16145b6112df576040517f08c379a00000000000000000000000000000000000000000000000000000000081526004016112d69061261f565b60405180910390fd5b6000600460008781526020019081526020016000206040518060800160405290816000820160009054906101000a900473ffffffffffffffffffffffffffffffffffffffff1673ffffffffffffffffffffffffffffffffffffffff1673ffffffffffffffffffffffffffffffffffffffff1681526020016001820180546113659061201e565b80601f01602080910402602001604051908101604052809291908181526020018280546113919061201e565b80156113de5780601f106113b3576101008083540402835291602001916113de565b820191906000526020600020905b8154815290600101906020018083116113c157829003601f168201915b505050505081526020016002820180546113f79061201e565b80601f01602080910402602001604051908101604052809291908181526020018280546114239061201e565b80156114705780601f1061144557610100808354040283529160200191611470565b820191906000526020600020905b81548152906001019060200180831161145357829003601f168201915b50505050508152602001600382015481525050905080602001519350806040015192508060600151915080600001519450509193509193565b3373ffffffffffffffffffffffffffffffffffffffff1660008054906101000a900473ffffffffffffffffffffffffffffffffffffffff1673ffffffffffffffffffffffffffffffffffffffff16636352211e846040518263ffffffff1660e01b815260040161151991906117d7565b60206040518083038186803b15801561153157600080fd5b505afa158015611545573d6000803e3d6000fd5b505050506040513d601f19601f820116820180604052508101906115699190612333565b73ffffffffffffffffffffffffffffffffffffffff16146115bf576040517f08c379a00000000000000000000000000000000000000000000000000000000081526004016115b6906126b1565b60405180910390fd5b6115c982826115cd565b5050565b60016003600084815260200190815260200160002060008373ffffffffffffffffffffffffffffffffffffffff1673ffffffffffffffffffffffffffffffffffffffff16815260200190815260200160002060006101000a81548160ff021916908360ff1602179055507f63d1031fe51b7f8799a02a5addcd97e79e2a6188a92725d645f4a90bdabb44513382604051611668929190612124565b60405180910390a15050565b60006003600084815260200190815260200160002060008373ffffffffffffffffffffffffffffffffffffffff1673ffffffffffffffffffffffffffffffffffffffff16815260200190815260200160002060006101000a81548160ff021916908360ff1602179055507f7aba6caaa6df831240618c7bd9474079c5ab48bce29e0aa4cd48fe6c95d89985338260405161170f929190612124565b60405180910390a15050565b8280546117279061201e565b90600052602060002090601f0160209004810192826117495760008555611790565b82601f1061176257805160ff1916838001178555611790565b82800160010185558215611790579182015b8281111561178f578251825591602001919060010190611774565b5b50905061179d91906117a1565b5090565b5b808211156117ba5760008160009055506001016117a2565b5090565b6000819050919050565b6117d1816117be565b82525050565b60006020820190506117ec60008301846117c8565b92915050565b6000604051905090565b600080fd5b600080fd5b61180f816117be565b811461181a57600080fd5b50565b60008135905061182c81611806565b92915050565b600060208284031215611848576118476117fc565b5b60006118568482850161181d565b91505092915050565b600080fd5b600080fd5b6000601f19601f8301169050919050565b7f4e487b7100000000000000000000000000000000000000000000000000000000600052604160045260246000fd5b6118b282611869565b810181811067ffffffffffffffff821117156118d1576118d061187a565b5b80604052505050565b60006118e46117f2565b90506118f082826118a9565b919050565b600067ffffffffffffffff8211156119105761190f61187a565b5b61191982611869565b9050602081019050919050565b82818337600083830152505050565b6000611948611943846118f5565b6118da565b90508281526020810184848401111561196457611963611864565b5b61196f848285611926565b509392505050565b600082601f83011261198c5761198b61185f565b5b813561199c848260208601611935565b91505092915050565b6000806000606084860312156119be576119bd6117fc565b5b600084013567ffffffffffffffff8111156119dc576119db611801565b5b6119e886828701611977565b935050602084013567ffffffffffffffff811115611a0957611a08611801565b5b611a1586828701611977565b9250506040611a268682870161181d565b9150509250925092565b600073ffffffffffffffffffffffffffffffffffffffff82169050919050565b6000611a5b82611a30565b9050919050565b611a6b81611a50565b82525050565b6000602082019050611a866000830184611a62565b92915050565b611a9581611a50565b8114611aa057600080fd5b50565b600081359050611ab281611a8c565b92915050565b60008060408385031215611acf57611ace6117fc565b5b6000611add8582860161181d565b9250506020611aee85828601611aa3565b9150509250929050565b60008060408385031215611b0f57611b0e6117fc565b5b6000611b1d8582860161181d565b9250506020611b2e8582860161181d565b9150509250929050565b600081519050919050565b600082825260208201905092915050565b6000819050602082019050919050565b611b6d81611a50565b82525050565b6000611b7f8383611b64565b60208301905092915050565b6000602082019050919050565b6000611ba382611b38565b611bad8185611b43565b9350611bb883611b54565b8060005b83811015611be9578151611bd08882611b73565b9750611bdb83611b8b565b925050600181019050611bbc565b5085935050505092915050565b600081519050919050565b600082825260208201905092915050565b6000819050602082019050919050565b600081519050919050565b600082825260208201905092915050565b60005b83811015611c5c578082015181840152602081019050611c41565b83811115611c6b576000848401525b50505050565b6000611c7c82611c22565b611c868185611c2d565b9350611c96818560208601611c3e565b611c9f81611869565b840191505092915050565b6000611cb68383611c71565b905092915050565b6000602082019050919050565b6000611cd682611bf6565b611ce08185611c01565b935083602082028501611cf285611c12565b8060005b85811015611d2e5784840389528151611d0f8582611caa565b9450611d1a83611cbe565b925060208a01995050600181019050611cf6565b50829750879550505050505092915050565b600081519050919050565b600082825260208201905092915050565b6000819050602082019050919050565b611d75816117be565b82525050565b6000611d878383611d6c565b60208301905092915050565b6000602082019050919050565b6000611dab82611d40565b611db58185611d4b565b9350611dc083611d5c565b8060005b83811015611df1578151611dd88882611d7b565b9750611de383611d93565b925050600181019050611dc4565b5085935050505092915050565b60006060820190508181036000830152611e188186611b98565b90508181036020830152611e2c8185611ccb565b90508181036040830152611e408184611da0565b9050949350505050565b600060ff82169050919050565b611e6081611e4a565b82525050565b6000602082019050611e7b6000830184611e57565b92915050565b600082825260208201905092915050565b6000611e9d82611c22565b611ea78185611e81565b9350611eb7818560208601611c3e565b611ec081611869565b840191505092915050565b6000608082019050611ee06000830187611a62565b8181036020830152611ef28186611e92565b90508181036040830152611f068185611e92565b9050611f1560608301846117c8565b95945050505050565b60008115159050919050565b611f3381611f1e565b8114611f3e57600080fd5b50565b600081519050611f5081611f2a565b92915050565b600060208284031215611f6c57611f6b6117fc565b5b6000611f7a84828501611f41565b91505092915050565b7f546f6b656e20646f65736e277420657869737473212100000000000000000000600082015250565b6000611fb9601683611e81565b9150611fc482611f83565b602082019050919050565b60006020820190508181036000830152611fe881611fac565b9050919050565b7f4e487b7100000000000000000000000000000000000000000000000000000000600052602260045260246000fd5b6000600282049050600182168061203657607f821691505b6020821081141561204a57612049611fef565b5b50919050565b60008151905061205f81611806565b92915050565b60006020828403121561207b5761207a6117fc565b5b600061208984828501612050565b91505092915050565b7f4d75737420686176652061746c656173742074686174206d75636820746f6b6560008201527f6e73212100000000000000000000000000000000000000000000000000000000602082015250565b60006120ee602483611e81565b91506120f982612092565b604082019050919050565b6000602082019050818103600083015261211d816120e1565b9050919050565b60006040820190506121396000830185611a62565b6121466020830184611a62565b9392505050565b7f4e6f7420656e6f75676820616c6c6f77616e636520746f20627579207669646560008201527f6f206163636573732e0000000000000000000000000000000000000000000000602082015250565b60006121a9602983611e81565b91506121b48261214d565b604082019050919050565b600060208201905081810360008301526121d88161219c565b9050919050565b60006060820190506121f46000830186611a62565b6122016020830185611a62565b61220e60408301846117c8565b949350505050565b600060408201905061222b6000830185611a62565b61223860208301846117c8565b9392505050565b60006040820190506122546000830185611a62565b81810360208301526122668184611e92565b90509392505050565b7f4e487b7100000000000000000000000000000000000000000000000000000000600052601160045260246000fd5b60006122a9826117be565b91507fffffffffffffffffffffffffffffffffffffffffffffffffffffffffffffffff8214156122dc576122db61226f565b5b600182019050919050565b60006060820190506122fc6000830186611a62565b61230960208301856117c8565b61231660408301846117c8565b949350505050565b60008151905061232d81611a8c565b92915050565b600060208284031215612349576123486117fc565b5b60006123578482850161231e565b91505092915050565b7f4f6e6c7920746f6b656e206f776e65722063616e207265766f6b65206163636560008201527f7373212100000000000000000000000000000000000000000000000000000000602082015250565b60006123bc602483611e81565b91506123c782612360565b604082019050919050565b600060208201905081810360008301526123eb816123af565b9050919050565b7f4d75737420626520696e2072616e6765206f6620746f74616c20566964656f2760008201527f7320417661696c61626c65000000000000000000000000000000000000000000602082015250565b600061244e602b83611e81565b9150612459826123f2565b604082019050919050565b6000602082019050818103600083015261247d81612441565b9050919050565b600061248f826117be565b915061249a836117be565b9250828210156124ad576124ac61226f565b5b828203905092915050565b7f4e487b7100000000000000000000000000000000000000000000000000000000600052603260045260246000fd5b7f546f6b656e20646f65736e277420457869737473212100000000000000000000600082015250565b600061251d601683611e81565b9150612528826124e7565b602082019050919050565b6000602082019050818103600083015261254c81612510565b9050919050565b600061255e826117be565b9150612569836117be565b9250817fffffffffffffffffffffffffffffffffffffffffffffffffffffffffffffffff04831182151516156125a2576125a161226f565b5b828202905092915050565b7f52657175657374657220646f65736e277420686176652061636365737320746f60008201527f20766964656f2e00000000000000000000000000000000000000000000000000602082015250565b6000612609602783611e81565b9150612614826125ad565b604082019050919050565b60006020820190508181036000830152612638816125fc565b9050919050565b7f4f6e6c7920746f6b656e206f776e65722063616e206772616e7420616363657360008201527f7321210000000000000000000000000000000000000000000000000000000000602082015250565b600061269b602383611e81565b91506126a68261263f565b604082019050919050565b600060208201905081810360008301526126ca8161268e565b905091905056fea2646970667358221220f206082f87863b2a1988e47280bb6266cdf46439f62fc0d1dcac2e1e8ded96bc64736f6c6343000809003360806040523480156200001157600080fd5b506040518060400160405280600b81526020017f416e696d6553747564696f0000000000000000000000000000000000000000008152506040518060400160405280600481526020017f414e53540000000000000000000000000000000000000000000000000000000081525081600090805190602001906200009692919062000264565b508060019080519060200190620000af92919062000264565b505050620000c76000801b33620000ff60201b60201c565b620000f97fa49807205ce4d355092ef5a8a18f56e8913cf4a201fbe287825b095693c2177533620000ff60201b60201c565b62000379565b620001118282620001f160201b60201c565b620001ed5760016007600084815260200190815260200160002060000160008373ffffffffffffffffffffffffffffffffffffffff1673ffffffffffffffffffffffffffffffffffffffff16815260200190815260200160002060006101000a81548160ff021916908315150217905550620001926200025c60201b60201c565b73ffffffffffffffffffffffffffffffffffffffff168173ffffffffffffffffffffffffffffffffffffffff16837f2f8788117e7eff1d82e926ec794901d17c78024a50270940304540a733656f0d60405160405180910390a45b5050565b60006007600084815260200190815260200160002060000160008373ffffffffffffffffffffffffffffffffffffffff1673ffffffffffffffffffffffffffffffffffffffff16815260200190815260200160002060009054906101000a900460ff16905092915050565b600033905090565b828054620002729062000343565b90600052602060002090601f016020900481019282620002965760008555620002e2565b82601f10620002b157805160ff1916838001178555620002e2565b82800160010185558215620002e2579182015b82811115620002e1578251825591602001919060010190620002c4565b5b509050620002f19190620002f5565b5090565b5b8082111562000310576000816000905550600101620002f6565b5090565b7f4e487b7100000000000000000000000000000000000000000000000000000000600052602260045260246000fd5b600060028204905060018216806200035c57607f821691505b6020821081141562000373576200037262000314565b5b50919050565b61393580620003896000396000f3fe608060405234801561001057600080fd5b50600436106101585760003560e01c806370a08231116100c3578063b88d4fde1161007c578063b88d4fde146103e9578063c87b56dd14610405578063d204c45e14610435578063d547741f14610465578063e58378bb14610481578063e985e9c51461049f57610158565b806370a082311461031357806375b238fc1461034357806391d148541461036157806395d89b4114610391578063a217fddf146103af578063a22cb465146103cd57610158565b8063248a9ca311610115578063248a9ca31461022f5780632f2ff15d1461025f57806336568abe1461027b57806342842e0e146102975780634f558e79146102b35780636352211e146102e357610158565b806301ffc9a71461015d57806306fdde031461018d578063081812fc146101ab578063095ea7b3146101db57806318e97fd1146101f757806323b872dd14610213575b600080fd5b610177600480360381019061017291906125a1565b6104cf565b60405161018491906125e9565b60405180910390f35b6101956104e1565b6040516101a2919061269d565b60405180910390f35b6101c560048036038101906101c091906126f5565b610573565b6040516101d29190612763565b60405180910390f35b6101f560048036038101906101f091906127aa565b6105b9565b005b610211600480360381019061020c919061291f565b6106d1565b005b61022d6004803603810190610228919061297b565b610780565b005b61024960048036038101906102449190612a04565b6107e0565b6040516102569190612a40565b60405180910390f35b61027960048036038101906102749190612a5b565b610800565b005b61029560048036038101906102909190612a5b565b610821565b005b6102b160048036038101906102ac919061297b565b6108a4565b005b6102cd60048036038101906102c891906126f5565b6108c4565b6040516102da91906125e9565b60405180910390f35b6102fd60048036038101906102f891906126f5565b6108d6565b60405161030a9190612763565b60405180910390f35b61032d60048036038101906103289190612a9b565b61095d565b60405161033a9190612ad7565b60405180910390f35b61034b610a15565b6040516103589190612a40565b60405180910390f35b61037b60048036038101906103769190612a5b565b610a39565b60405161038891906125e9565b60405180910390f35b610399610aa4565b6040516103a6919061269d565b60405180910390f35b6103b7610b36565b6040516103c49190612a40565b60405180910390f35b6103e760048036038101906103e29190612b1e565b610b3d565b005b61040360048036038101906103fe9190612bff565b610b53565b005b61041f600480360381019061041a91906126f5565b610bb5565b60405161042c919061269d565b60405180910390f35b61044f600480360381019061044a9190612c82565b610bc7565b60405161045c9190612ad7565b60405180910390f35b61047f600480360381019061047a9190612a5b565b610c54565b005b610489610c75565b6040516104969190612a40565b60405180910390f35b6104b960048036038101906104b49190612cde565b610c99565b6040516104c691906125e9565b60405180910390f35b60006104da82610d2d565b9050919050565b6060600080546104f090612d4d565b80601f016020809104026020016040519081016040528092919081815260200182805461051c90612d4d565b80156105695780601f1061053e57610100808354040283529160200191610569565b820191906000526020600020905b81548152906001019060200180831161054c57829003601f168201915b5050505050905090565b600061057e82610da7565b6004600083815260200190815260200160002060009054906101000a900473ffffffffffffffffffffffffffffffffffffffff169050919050565b60006105c4826108d6565b90508073ffffffffffffffffffffffffffffffffffffffff168373ffffffffffffffffffffffffffffffffffffffff161415610635576040517f08c379a000000000000000000000000000000000000000000000000000000000815260040161062c90612df1565b60405180910390fd5b8073ffffffffffffffffffffffffffffffffffffffff16610654610df2565b73ffffffffffffffffffffffffffffffffffffffff16148061068357506106828161067d610df2565b610c99565b5b6106c2576040517f08c379a00000000000000000000000000000000000000000000000000000000081526004016106b990612e83565b60405180910390fd5b6106cc8383610dfa565b505050565b7fb19546dff01e856fb3f010c267a7b1c60363cf8a4664e21cc89c26224620214e6106fb81610eb3565b3373ffffffffffffffffffffffffffffffffffffffff1661071b846108d6565b73ffffffffffffffffffffffffffffffffffffffff1614610771576040517f08c379a000000000000000000000000000000000000000000000000000000000815260040161076890612f15565b60405180910390fd5b61077b8383610ec7565b505050565b61079161078b610df2565b82610f3b565b6107d0576040517f08c379a00000000000000000000000000000000000000000000000000000000081526004016107c790612fa7565b60405180910390fd5b6107db838383610fd0565b505050565b600060076000838152602001908152602001600020600101549050919050565b610809826107e0565b61081281610eb3565b61081c83836112ca565b505050565b610829610df2565b73ffffffffffffffffffffffffffffffffffffffff168173ffffffffffffffffffffffffffffffffffffffff1614610896576040517f08c379a000000000000000000000000000000000000000000000000000000000815260040161088d90613039565b60405180910390fd5b6108a082826113ab565b5050565b6108bf83838360405180602001604052806000815250610b53565b505050565b60006108cf8261148d565b9050919050565b6000806108e2836114ce565b9050600073ffffffffffffffffffffffffffffffffffffffff168173ffffffffffffffffffffffffffffffffffffffff161415610954576040517f08c379a000000000000000000000000000000000000000000000000000000000815260040161094b906130a5565b60405180910390fd5b80915050919050565b60008073ffffffffffffffffffffffffffffffffffffffff168273ffffffffffffffffffffffffffffffffffffffff1614156109ce576040517f08c379a00000000000000000000000000000000000000000000000000000000081526004016109c590613137565b60405180910390fd5b600360008373ffffffffffffffffffffffffffffffffffffffff1673ffffffffffffffffffffffffffffffffffffffff168152602001908152602001600020549050919050565b7fa49807205ce4d355092ef5a8a18f56e8913cf4a201fbe287825b095693c2177581565b60006007600084815260200190815260200160002060000160008373ffffffffffffffffffffffffffffffffffffffff1673ffffffffffffffffffffffffffffffffffffffff16815260200190815260200160002060009054906101000a900460ff16905092915050565b606060018054610ab390612d4d565b80601f0160208091040260200160405190810160405280929190818152602001828054610adf90612d4d565b8015610b2c5780601f10610b0157610100808354040283529160200191610b2c565b820191906000526020600020905b815481529060010190602001808311610b0f57829003601f168201915b5050505050905090565b6000801b81565b610b4f610b48610df2565b838361150b565b5050565b610b64610b5e610df2565b83610f3b565b610ba3576040517f08c379a0000000000000000000000000000000000000000000000000000000008152600401610b9a90612fa7565b60405180910390fd5b610baf84848484611678565b50505050565b6060610bc0826116d4565b9050919050565b60007fa49807205ce4d355092ef5a8a18f56e8913cf4a201fbe287825b095693c21775610bf381610eb3565b6000610bff60086117e7565b9050610c0b60086117f5565b809250610c18858261180b565b610c228185610ec7565b610c4c7fb19546dff01e856fb3f010c267a7b1c60363cf8a4664e21cc89c26224620214e866112ca565b505092915050565b610c5d826107e0565b610c6681610eb3565b610c7083836113ab565b505050565b7fb19546dff01e856fb3f010c267a7b1c60363cf8a4664e21cc89c26224620214e81565b6000600560008473ffffffffffffffffffffffffffffffffffffffff1673ffffffffffffffffffffffffffffffffffffffff16815260200190815260200160002060008373ffffffffffffffffffffffffffffffffffffffff1673ffffffffffffffffffffffffffffffffffffffff16815260200190815260200160002060009054906101000a900460ff16905092915050565b60007f7965db0b000000000000000000000000000000000000000000000000000000007bffffffffffffffffffffffffffffffffffffffffffffffffffffffff1916827bffffffffffffffffffffffffffffffffffffffffffffffffffffffff19161480610da05750610d9f82611829565b5b9050919050565b610db08161148d565b610def576040517f08c379a0000000000000000000000000000000000000000000000000000000008152600401610de6906130a5565b60405180910390fd5b50565b600033905090565b816004600083815260200190815260200160002060006101000a81548173ffffffffffffffffffffffffffffffffffffffff021916908373ffffffffffffffffffffffffffffffffffffffff160217905550808273ffffffffffffffffffffffffffffffffffffffff16610e6d836108d6565b73ffffffffffffffffffffffffffffffffffffffff167f8c5be1e5ebec7d5bd14f71427d1e84f3dd0314c0f7b2291e5b200ac8c7c3b92560405160405180910390a45050565b610ec481610ebf610df2565b61190b565b50565b610ed08261148d565b610f0f576040517f08c379a0000000000000000000000000000000000000000000000000000000008152600401610f06906131c9565b60405180910390fd5b80600660008481526020019081526020016000209080519060200190610f36929190612492565b505050565b600080610f47836108d6565b90508073ffffffffffffffffffffffffffffffffffffffff168473ffffffffffffffffffffffffffffffffffffffff161480610f895750610f888185610c99565b5b80610fc757508373ffffffffffffffffffffffffffffffffffffffff16610faf84610573565b73ffffffffffffffffffffffffffffffffffffffff16145b91505092915050565b8273ffffffffffffffffffffffffffffffffffffffff16610ff0826108d6565b73ffffffffffffffffffffffffffffffffffffffff1614611046576040517f08c379a000000000000000000000000000000000000000000000000000000000815260040161103d9061325b565b60405180910390fd5b600073ffffffffffffffffffffffffffffffffffffffff168273ffffffffffffffffffffffffffffffffffffffff1614156110b6576040517f08c379a00000000000000000000000000000000000000000000000000000000081526004016110ad906132ed565b60405180910390fd5b6110c38383836001611990565b8273ffffffffffffffffffffffffffffffffffffffff166110e3826108d6565b73ffffffffffffffffffffffffffffffffffffffff1614611139576040517f08c379a00000000000000000000000000000000000000000000000000000000081526004016111309061325b565b60405180910390fd5b6004600082815260200190815260200160002060006101000a81549073ffffffffffffffffffffffffffffffffffffffff02191690556001600360008573ffffffffffffffffffffffffffffffffffffffff1673ffffffffffffffffffffffffffffffffffffffff168152602001908152602001600020600082825403925050819055506001600360008473ffffffffffffffffffffffffffffffffffffffff1673ffffffffffffffffffffffffffffffffffffffff16815260200190815260200160002060008282540192505081905550816002600083815260200190815260200160002060006101000a81548173ffffffffffffffffffffffffffffffffffffffff021916908373ffffffffffffffffffffffffffffffffffffffff160217905550808273ffffffffffffffffffffffffffffffffffffffff168473ffffffffffffffffffffffffffffffffffffffff167fddf252ad1be2c89b69c2b068fc378daa952ba7f163c4a11628f55a4df523b3ef60405160405180910390a46112c58383836001611ab6565b505050565b6112d48282610a39565b6113a75760016007600084815260200190815260200160002060000160008373ffffffffffffffffffffffffffffffffffffffff1673ffffffffffffffffffffffffffffffffffffffff16815260200190815260200160002060006101000a81548160ff02191690831515021790555061134c610df2565b73ffffffffffffffffffffffffffffffffffffffff168173ffffffffffffffffffffffffffffffffffffffff16837f2f8788117e7eff1d82e926ec794901d17c78024a50270940304540a733656f0d60405160405180910390a45b5050565b6113b58282610a39565b156114895760006007600084815260200190815260200160002060000160008373ffffffffffffffffffffffffffffffffffffffff1673ffffffffffffffffffffffffffffffffffffffff16815260200190815260200160002060006101000a81548160ff02191690831515021790555061142e610df2565b73ffffffffffffffffffffffffffffffffffffffff168173ffffffffffffffffffffffffffffffffffffffff16837ff6391f5c32d9c69d2a47ea670b442974b53935d1edc7fd64eb21e047a839171b60405160405180910390a45b5050565b60008073ffffffffffffffffffffffffffffffffffffffff166114af836114ce565b73ffffffffffffffffffffffffffffffffffffffff1614159050919050565b60006002600083815260200190815260200160002060009054906101000a900473ffffffffffffffffffffffffffffffffffffffff169050919050565b8173ffffffffffffffffffffffffffffffffffffffff168373ffffffffffffffffffffffffffffffffffffffff16141561157a576040517f08c379a000000000000000000000000000000000000000000000000000000000815260040161157190613359565b60405180910390fd5b80600560008573ffffffffffffffffffffffffffffffffffffffff1673ffffffffffffffffffffffffffffffffffffffff16815260200190815260200160002060008473ffffffffffffffffffffffffffffffffffffffff1673ffffffffffffffffffffffffffffffffffffffff16815260200190815260200160002060006101000a81548160ff0219169083151502179055508173ffffffffffffffffffffffffffffffffffffffff168373ffffffffffffffffffffffffffffffffffffffff167f17307eab39ab6107e8899845ad3d59bd9653f200f220920489ca2b5937696c318360405161166b91906125e9565b60405180910390a3505050565b611683848484610fd0565b61168f84848484611abc565b6116ce576040517f08c379a00000000000000000000000000000000000000000000000000000000081526004016116c5906133eb565b60405180910390fd5b50505050565b60606116df82610da7565b60006006600084815260200190815260200160002080546116ff90612d4d565b80601f016020809104026020016040519081016040528092919081815260200182805461172b90612d4d565b80156117785780601f1061174d57610100808354040283529160200191611778565b820191906000526020600020905b81548152906001019060200180831161175b57829003601f168201915b505050505090506000611789611c53565b905060008151141561179f5781925050506117e2565b6000825111156117d45780826040516020016117bc929190613447565b604051602081830303815290604052925050506117e2565b6117dd84611c90565b925050505b919050565b600081600001549050919050565b6001816000016000828254019250508190555050565b611825828260405180602001604052806000815250611cf8565b5050565b60007f80ac58cd000000000000000000000000000000000000000000000000000000007bffffffffffffffffffffffffffffffffffffffffffffffffffffffff1916827bffffffffffffffffffffffffffffffffffffffffffffffffffffffff191614806118f457507f5b5e139f000000000000000000000000000000000000000000000000000000007bffffffffffffffffffffffffffffffffffffffffffffffffffffffff1916827bffffffffffffffffffffffffffffffffffffffffffffffffffffffff1916145b80611904575061190382611d53565b5b9050919050565b6119158282610a39565b61198c5761192281611dbd565b6119308360001c6020611dea565b604051602001611941929190613503565b6040516020818303038152906040526040517f08c379a0000000000000000000000000000000000000000000000000000000008152600401611983919061269d565b60405180910390fd5b5050565b6001811115611ab057600073ffffffffffffffffffffffffffffffffffffffff168473ffffffffffffffffffffffffffffffffffffffff1614611a245780600360008673ffffffffffffffffffffffffffffffffffffffff1673ffffffffffffffffffffffffffffffffffffffff1681526020019081526020016000206000828254611a1c919061356c565b925050819055505b600073ffffffffffffffffffffffffffffffffffffffff168373ffffffffffffffffffffffffffffffffffffffff1614611aaf5780600360008573ffffffffffffffffffffffffffffffffffffffff1673ffffffffffffffffffffffffffffffffffffffff1681526020019081526020016000206000828254611aa791906135a0565b925050819055505b5b50505050565b50505050565b6000611add8473ffffffffffffffffffffffffffffffffffffffff16612026565b15611c46578373ffffffffffffffffffffffffffffffffffffffff1663150b7a02611b06610df2565b8786866040518563ffffffff1660e01b8152600401611b28949392919061364b565b602060405180830381600087803b158015611b4257600080fd5b505af1925050508015611b7357506040513d601f19601f82011682018060405250810190611b7091906136ac565b60015b611bf6573d8060008114611ba3576040519150601f19603f3d011682016040523d82523d6000602084013e611ba8565b606091505b50600081511415611bee576040517f08c379a0000000000000000000000000000000000000000000000000000000008152600401611be5906133eb565b60405180910390fd5b805181602001fd5b63150b7a0260e01b7bffffffffffffffffffffffffffffffffffffffffffffffffffffffff1916817bffffffffffffffffffffffffffffffffffffffffffffffffffffffff191614915050611c4b565b600190505b949350505050565b60606040518060400160405280600781526020017f697066733a2f2f00000000000000000000000000000000000000000000000000815250905090565b6060611c9b82610da7565b6000611ca5611c53565b90506000815111611cc55760405180602001604052806000815250611cf0565b80611ccf84612049565b604051602001611ce0929190613447565b6040516020818303038152906040525b915050919050565b611d028383612121565b611d0f6000848484611abc565b611d4e576040517f08c379a0000000000000000000000000000000000000000000000000000000008152600401611d45906133eb565b60405180910390fd5b505050565b60007f01ffc9a7000000000000000000000000000000000000000000000000000000007bffffffffffffffffffffffffffffffffffffffffffffffffffffffff1916827bffffffffffffffffffffffffffffffffffffffffffffffffffffffff1916149050919050565b6060611de38273ffffffffffffffffffffffffffffffffffffffff16601460ff16611dea565b9050919050565b606060006002836002611dfd91906136d9565b611e0791906135a0565b67ffffffffffffffff811115611e2057611e1f6127f4565b5b6040519080825280601f01601f191660200182016040528015611e525781602001600182028036833780820191505090505b5090507f300000000000000000000000000000000000000000000000000000000000000081600081518110611e8a57611e89613733565b5b60200101907effffffffffffffffffffffffffffffffffffffffffffffffffffffffffffff1916908160001a9053507f780000000000000000000000000000000000000000000000000000000000000081600181518110611eee57611eed613733565b5b60200101907effffffffffffffffffffffffffffffffffffffffffffffffffffffffffffff1916908160001a90535060006001846002611f2e91906136d9565b611f3891906135a0565b90505b6001811115611fd8577f3031323334353637383961626364656600000000000000000000000000000000600f861660108110611f7a57611f79613733565b5b1a60f81b828281518110611f9157611f90613733565b5b60200101907effffffffffffffffffffffffffffffffffffffffffffffffffffffffffffff1916908160001a905350600485901c945080611fd190613762565b9050611f3b565b506000841461201c576040517f08c379a0000000000000000000000000000000000000000000000000000000008152600401612013906137d8565b60405180910390fd5b8091505092915050565b6000808273ffffffffffffffffffffffffffffffffffffffff163b119050919050565b6060600060016120588461233f565b01905060008167ffffffffffffffff811115612077576120766127f4565b5b6040519080825280601f01601f1916602001820160405280156120a95781602001600182028036833780820191505090505b509050600082602001820190505b600115612116578080600190039150507f3031323334353637383961626364656600000000000000000000000000000000600a86061a8153600a8581612100576120ff6137f8565b5b049450600085141561211157612116565b6120b7565b819350505050919050565b600073ffffffffffffffffffffffffffffffffffffffff168273ffffffffffffffffffffffffffffffffffffffff161415612191576040517f08c379a000000000000000000000000000000000000000000000000000000000815260040161218890613873565b60405180910390fd5b61219a8161148d565b156121da576040517f08c379a00000000000000000000000000000000000000000000000000000000081526004016121d1906138df565b60405180910390fd5b6121e8600083836001611990565b6121f18161148d565b15612231576040517f08c379a0000000000000000000000000000000000000000000000000000000008152600401612228906138df565b60405180910390fd5b6001600360008473ffffffffffffffffffffffffffffffffffffffff1673ffffffffffffffffffffffffffffffffffffffff16815260200190815260200160002060008282540192505081905550816002600083815260200190815260200160002060006101000a81548173ffffffffffffffffffffffffffffffffffffffff021916908373ffffffffffffffffffffffffffffffffffffffff160217905550808273ffffffffffffffffffffffffffffffffffffffff16600073ffffffffffffffffffffffffffffffffffffffff167fddf252ad1be2c89b69c2b068fc378daa952ba7f163c4a11628f55a4df523b3ef60405160405180910390a461233b600083836001611ab6565b5050565b600080600090507a184f03e93ff9f4daa797ed6e38ed64bf6a1f010000000000000000831061239d577a184f03e93ff9f4daa797ed6e38ed64bf6a1f0100000000000000008381612393576123926137f8565b5b0492506040810190505b6d04ee2d6d415b85acef810000000083106123da576d04ee2d6d415b85acef810000000083816123d0576123cf6137f8565b5b0492506020810190505b662386f26fc10000831061240957662386f26fc1000083816123ff576123fe6137f8565b5b0492506010810190505b6305f5e1008310612432576305f5e1008381612428576124276137f8565b5b0492506008810190505b612710831061245757612710838161244d5761244c6137f8565b5b0492506004810190505b6064831061247a57606483816124705761246f6137f8565b5b0492506002810190505b600a8310612489576001810190505b80915050919050565b82805461249e90612d4d565b90600052602060002090601f0160209004810192826124c05760008555612507565b82601f106124d957805160ff1916838001178555612507565b82800160010185558215612507579182015b828111156125065782518255916020019190600101906124eb565b5b5090506125149190612518565b5090565b5b80821115612531576000816000905550600101612519565b5090565b6000604051905090565b600080fd5b600080fd5b60007fffffffff0000000000000000000000000000000000000000000000000000000082169050919050565b61257e81612549565b811461258957600080fd5b50565b60008135905061259b81612575565b92915050565b6000602082840312156125b7576125b661253f565b5b60006125c58482850161258c565b91505092915050565b60008115159050919050565b6125e3816125ce565b82525050565b60006020820190506125fe60008301846125da565b92915050565b600081519050919050565b600082825260208201905092915050565b60005b8381101561263e578082015181840152602081019050612623565b8381111561264d576000848401525b50505050565b6000601f19601f8301169050919050565b600061266f82612604565b612679818561260f565b9350612689818560208601612620565b61269281612653565b840191505092915050565b600060208201905081810360008301526126b78184612664565b905092915050565b6000819050919050565b6126d2816126bf565b81146126dd57600080fd5b50565b6000813590506126ef816126c9565b92915050565b60006020828403121561270b5761270a61253f565b5b6000612719848285016126e0565b91505092915050565b600073ffffffffffffffffffffffffffffffffffffffff82169050919050565b600061274d82612722565b9050919050565b61275d81612742565b82525050565b60006020820190506127786000830184612754565b92915050565b61278781612742565b811461279257600080fd5b50565b6000813590506127a48161277e565b92915050565b600080604083850312156127c1576127c061253f565b5b60006127cf85828601612795565b92505060206127e0858286016126e0565b9150509250929050565b600080fd5b600080fd5b7f4e487b7100000000000000000000000000000000000000000000000000000000600052604160045260246000fd5b61282c82612653565b810181811067ffffffffffffffff8211171561284b5761284a6127f4565b5b80604052505050565b600061285e612535565b905061286a8282612823565b919050565b600067ffffffffffffffff82111561288a576128896127f4565b5b61289382612653565b9050602081019050919050565b82818337600083830152505050565b60006128c26128bd8461286f565b612854565b9050828152602081018484840111156128de576128dd6127ef565b5b6128e98482856128a0565b509392505050565b600082601f830112612906576129056127ea565b5b81356129168482602086016128af565b91505092915050565b600080604083850312156129365761293561253f565b5b6000612944858286016126e0565b925050602083013567ffffffffffffffff81111561296557612964612544565b5b612971858286016128f1565b9150509250929050565b6000806000606084860312156129945761299361253f565b5b60006129a286828701612795565b93505060206129b386828701612795565b92505060406129c4868287016126e0565b9150509250925092565b6000819050919050565b6129e1816129ce565b81146129ec57600080fd5b50565b6000813590506129fe816129d8565b92915050565b600060208284031215612a1a57612a1961253f565b5b6000612a28848285016129ef565b91505092915050565b612a3a816129ce565b82525050565b6000602082019050612a556000830184612a31565b92915050565b60008060408385031215612a7257612a7161253f565b5b6000612a80858286016129ef565b9250506020612a9185828601612795565b9150509250929050565b600060208284031215612ab157612ab061253f565b5b6000612abf84828501612795565b91505092915050565b612ad1816126bf565b82525050565b6000602082019050612aec6000830184612ac8565b92915050565b612afb816125ce565b8114612b0657600080fd5b50565b600081359050612b1881612af2565b92915050565b60008060408385031215612b3557612b3461253f565b5b6000612b4385828601612795565b9250506020612b5485828601612b09565b9150509250929050565b600067ffffffffffffffff821115612b7957612b786127f4565b5b612b8282612653565b9050602081019050919050565b6000612ba2612b9d84612b5e565b612854565b905082815260208101848484011115612bbe57612bbd6127ef565b5b612bc98482856128a0565b509392505050565b600082601f830112612be657612be56127ea565b5b8135612bf6848260208601612b8f565b91505092915050565b60008060008060808587031215612c1957612c1861253f565b5b6000612c2787828801612795565b9450506020612c3887828801612795565b9350506040612c49878288016126e0565b925050606085013567ffffffffffffffff811115612c6a57612c69612544565b5b612c7687828801612bd1565b91505092959194509250565b60008060408385031215612c9957612c9861253f565b5b6000612ca785828601612795565b925050602083013567ffffffffffffffff811115612cc857612cc7612544565b5b612cd4858286016128f1565b9150509250929050565b60008060408385031215612cf557612cf461253f565b5b6000612d0385828601612795565b9250506020612d1485828601612795565b9150509250929050565b7f4e487b7100000000000000000000000000000000000000000000000000000000600052602260045260246000fd5b60006002820490506001821680612d6557607f821691505b60208210811415612d7957612d78612d1e565b5b50919050565b7f4552433732313a20617070726f76616c20746f2063757272656e74206f776e6560008201527f7200000000000000000000000000000000000000000000000000000000000000602082015250565b6000612ddb60218361260f565b9150612de682612d7f565b604082019050919050565b60006020820190508181036000830152612e0a81612dce565b9050919050565b7f4552433732313a20617070726f76652063616c6c6572206973206e6f7420746f60008201527f6b656e206f776e6572206f7220617070726f76656420666f7220616c6c000000602082015250565b6000612e6d603d8361260f565b9150612e7882612e11565b604082019050919050565b60006020820190508181036000830152612e9c81612e60565b9050919050565b7f4f6e6c7920746f6b656e206f776e65722063616e20757064617465207468652060008201527f746f6b656e5552492e0000000000000000000000000000000000000000000000602082015250565b6000612eff60298361260f565b9150612f0a82612ea3565b604082019050919050565b60006020820190508181036000830152612f2e81612ef2565b9050919050565b7f4552433732313a2063616c6c6572206973206e6f7420746f6b656e206f776e6560008201527f72206f7220617070726f76656400000000000000000000000000000000000000602082015250565b6000612f91602d8361260f565b9150612f9c82612f35565b604082019050919050565b60006020820190508181036000830152612fc081612f84565b9050919050565b7f416363657373436f6e74726f6c3a2063616e206f6e6c792072656e6f756e636560008201527f20726f6c657320666f722073656c660000000000000000000000000000000000602082015250565b6000613023602f8361260f565b915061302e82612fc7565b604082019050919050565b6000602082019050818103600083015261305281613016565b9050919050565b7f4552433732313a20696e76616c696420746f6b656e2049440000000000000000600082015250565b600061308f60188361260f565b915061309a82613059565b602082019050919050565b600060208201905081810360008301526130be81613082565b9050919050565b7f4552433732313a2061646472657373207a65726f206973206e6f74206120766160008201527f6c6964206f776e65720000000000000000000000000000000000000000000000602082015250565b600061312160298361260f565b915061312c826130c5565b604082019050919050565b6000602082019050818103600083015261315081613114565b9050919050565b7f45524337323155524953746f726167653a2055524920736574206f66206e6f6e60008201527f6578697374656e7420746f6b656e000000000000000000000000000000000000602082015250565b60006131b3602e8361260f565b91506131be82613157565b604082019050919050565b600060208201905081810360008301526131e2816131a6565b9050919050565b7f4552433732313a207472616e736665722066726f6d20696e636f72726563742060008201527f6f776e6572000000000000000000000000000000000000000000000000000000602082015250565b600061324560258361260f565b9150613250826131e9565b604082019050919050565b6000602082019050818103600083015261327481613238565b9050919050565b7f4552433732313a207472616e7366657220746f20746865207a65726f2061646460008201527f7265737300000000000000000000000000000000000000000000000000000000602082015250565b60006132d760248361260f565b91506132e28261327b565b604082019050919050565b60006020820190508181036000830152613306816132ca565b9050919050565b7f4552433732313a20617070726f766520746f2063616c6c657200000000000000600082015250565b600061334360198361260f565b915061334e8261330d565b602082019050919050565b6000602082019050818103600083015261337281613336565b9050919050565b7f4552433732313a207472616e7366657220746f206e6f6e20455243373231526560008201527f63656976657220696d706c656d656e7465720000000000000000000000000000602082015250565b60006133d560328361260f565b91506133e082613379565b604082019050919050565b60006020820190508181036000830152613404816133c8565b9050919050565b600081905092915050565b600061342182612604565b61342b818561340b565b935061343b818560208601612620565b80840191505092915050565b60006134538285613416565b915061345f8284613416565b91508190509392505050565b7f416363657373436f6e74726f6c3a206163636f756e7420000000000000000000600082015250565b60006134a160178361340b565b91506134ac8261346b565b601782019050919050565b7f206973206d697373696e6720726f6c6520000000000000000000000000000000600082015250565b60006134ed60118361340b565b91506134f8826134b7565b601182019050919050565b600061350e82613494565b915061351a8285613416565b9150613525826134e0565b91506135318284613416565b91508190509392505050565b7f4e487b7100000000000000000000000000000000000000000000000000000000600052601160045260246000fd5b6000613577826126bf565b9150613582836126bf565b9250828210156135955761359461353d565b5b828203905092915050565b60006135ab826126bf565b91506135b6836126bf565b9250827fffffffffffffffffffffffffffffffffffffffffffffffffffffffffffffffff038211156135eb576135ea61353d565b5b828201905092915050565b600081519050919050565b600082825260208201905092915050565b600061361d826135f6565b6136278185613601565b9350613637818560208601612620565b61364081612653565b840191505092915050565b60006080820190506136606000830187612754565b61366d6020830186612754565b61367a6040830185612ac8565b818103606083015261368c8184613612565b905095945050505050565b6000815190506136a681612575565b92915050565b6000602082840312156136c2576136c161253f565b5b60006136d084828501613697565b91505092915050565b60006136e4826126bf565b91506136ef836126bf565b9250817fffffffffffffffffffffffffffffffffffffffffffffffffffffffffffffffff04831182151516156137285761372761353d565b5b828202905092915050565b7f4e487b7100000000000000000000000000000000000000000000000000000000600052603260045260246000fd5b600061376d826126bf565b915060008214156137815761378061353d565b5b600182039050919050565b7f537472696e67733a20686578206c656e67746820696e73756666696369656e74600082015250565b60006137c260208361260f565b91506137cd8261378c565b602082019050919050565b600060208201905081810360008301526137f1816137b5565b9050919050565b7f4e487b7100000000000000000000000000000000000000000000000000000000600052601260045260246000fd5b7f4552433732313a206d696e7420746f20746865207a65726f2061646472657373600082015250565b600061385d60208361260f565b915061386882613827565b602082019050919050565b6000602082019050818103600083015261388c81613850565b9050919050565b7f4552433732313a20746f6b656e20616c7265616479206d696e74656400000000600082015250565b60006138c9601c8361260f565b91506138d482613893565b602082019050919050565b600060208201905081810360008301526138f8816138bc565b905091905056fea264697066735822122047a9c39446adcf765d4f73dcd53edca698ac954891c8e584e38ae2d9eac5919364736f6c63430008090033",
  "linkReferences": {},
  "deployedLinkReferences": {}
}